:020000040800F2
:1000000058CA00203103000885A300084D84000869
:1000100081A30008150F000899F2000800000000F5
:100020000000000000000000000000007102000855
:100030007938000800000000CD020008A5E30008A0
:100040004B0300084B0300084B0300084B03000858
:100050004B0300084B030008093C00084B03000851
:100060004B030008133C00081D3C00084B0300082C
:10007000411C00084B0300084B0300084B03000819
:100080004B0300084B0300084B0300084B03000818
:10009000651000084B0300084B030008273C0008CC
:1000A0004B0300084B0300084B0300084B030008F8
:1000B0004B030008F1E400084B0300084B03000861
:1000C0004B0300084B0300084B0300084B030008D8
:1000D0004B0300084B0300084B03000861F00008C5
:1000E0004B0300084B0300084B0300084B030008B8
:1000F0004B0300084B0300084B0300084B030008A8
:100100004B0300084B0300084B0300084B03000897
:100110004B0300084B03000801E500084B030008EF
:100120004B030008511C0008611C00084B03000829
:10013000F92400084B0300084B0300084B03000898
:10014000811000084B0300084B0300084B03000814
:100150004B0300084B0300084B0300087DF0000828
:100160004B0300084B0300084B0300084B03000837
:100170004B0300084B0300084B030008000000007D
:100180004B0300084B03000800F002F800F060F891
:100190000AA090E8000C82448344AAF10107DA45E2
:1001A00001D100F055F8AFF2090EBAE80F0013F0D4
:1001B000010F18BFFB1A43F0010318479C6F0100A1
:1001C000BC6F010010F8013B0A4413F0030408BFA0
:1001D00010F8014B1D1108BF10F8015B641E05D01B
:1001E00010F8016B641E01F8016BF9D1002D15D0D8
:1001F00010F8014B03F00C030C2BA1EB04040ABF15
:1002000010F8013BA4EB8314A4EB032405F10103D4
:1002100014F8016B5B1E01F8016BF9D5914238BFF0
:1002200010F8013BD1D3704700230024002500269D
:10023000103A28BF78C1FBD8520728BF30C148BF49
:100240000B6070471FB515F0EFFA1FBD10B510BD5C
:1002500000F0A0FA1146FFF7F5FF11F073FA00F075
:10026000BEFA03B4FFF7F2FF03BC00F023FB00006B
:100270002C4B19680868B0E8F04F80F30988BFF389
:100280006F8F4FF0000080F311887047000000006E
:1002900008480068006880F308884FF0000080F389
:1002A000148862B661B6BFF34F8FBFF36F8F00DF64
:1002B00000BF00BF08ED00E0DFF80C00016841F46A
:1002C00070010160704700BF88ED00E0EFF3098026
:1002D000BFF36F8F134B1A681EF0100F08BF20ED8D
:1002E000108A20E9F04F106009B44FF0500080F3FD
:1002F0001188BFF34F8FBFF36F8F12F0F3FD4FF0F4
:10030000000080F3118809BC19680868B0E8F04F54
:100310001EF0100F08BFB0EC108A80F30988BFF3FD
:100320006F8F7047F4030020EFF3058070470000E3
:100330000948804709480047FEE7FEE7FEE7FEE779
:10034000FEE7FEE7FEE7FEE7FEE7FEE704480549B5
:10035000054A064B704700008DE40008890100083B
:10036000588A002058CA002058AA002058AA002005
:100370009FED1A1AF5EE000A40EE010ABDEEE00A02
:10038000F5EEC00A10EE100AF1EE10FA38BF401E6A
:1003900000EE100A1349F7EE001AB8EEC00A30EE6C
:1003A000C00ADFED0F0A20EE200AFCEEC00A10EEB4
:1003B000900AC0F3080000EE900A01EB8000F8EE0E
:1003C000600A90ED011A70EE600A90ED000A71EE7D
:1003D000E01A21EE800A00EE810A704783F9223E7E
:1003E00000000044D0680108B5EEC00AF1EE10FA32
:1003F00007D2DFED1E0AB4EEE00AF1EE10FAA8BF54
:100400007047DFED1B0AB5EEC00A60EE200ABDEEB4
:10041000E01A11EE100AF1EE10FA38BF401E00EE9D
:10042000100A1549F7EE001AB8EEC00A30EEC00AFD
:10043000DFED100A60EE200ABCEEE00A10EE100AB2
:10044000C0F3080000EE100A01EB8000B8EE400A8D
:1004500090ED011A70EEC00A90ED000A71EEE01AFC
:1004600021EE800A00EE810A70470000CD024CB4F4
:1004700083F9223E00000044D068010853EA020CD0
:1004800000F069802DE9F04B4FF00006002B1FBFF4
:10049000B3FA83F503FA05F424FA05F65E4012BFB9
:1004A0001643B2FA82F502FA05F4C5F120051EBF23
:1004B00022FA05FC44EA0C04203556EA044C4FEAC3
:1004C000144418BF641C4FF000084FF0000990421C
:1004D00071EB030C39D3002919BFB1FA81F701FA86
:1004E00007F6B0FA80F700FA07F6C7F120071EBF3B
:1004F00020FA07FC46EA0C062037B6FBF4FCA7EB13
:100500000507103F07F01F0BCBF120060CFA0BFB81
:100510002CFA06F644BFB3460026202FA4BF5E4641
:100520004FF0000B5BEA060C08BF4FF0010B19EB14
:100530000B09ABFB027C48EB0608C01B06FB02CC98
:100540000BFB03CC71EB0C01C1E70B4602464146A5
:100550004846BDE8F08B13B54FF000004FF00001A6
:10056000AFF30080BDE81C40704710B5431C02E0AB
:1005700010F8011B71B18107FAD14FF0013202C8A6
:100580008C1A8C4314EAC211F9D0C01A0A0603D09F
:10059000C01E10BDC01A10BD0A0401D0801E10BDBF
:1005A0000902FCD0401E10BD032A40F2308010F03A
:1005B000030C00F0158011F8013BBCF1020F6244FE
:1005C00098BF11F801CB00F8013B38BF11F8013B8F
:1005D000A2F1040298BF00F801CB38BF00F8013B3C
:1005E00011F0030300F02580083AC0F0088051F8AC
:1005F000043B083A51F804CBA0E80810F5E7121DB7
:100600005CBF51F8043B40F8043BAFF30080D207D5
:1006100024BF11F8013B11F801CB48BF11F8012BA1
:1006200024BF00F8013B00F801CB48BF00F8012BC4
:10063000704710B5203AC0F00B80B1E81850203A4E
:10064000A0E81850B1E81850A0E81850BFF4F5AF72
:100650005FEA027C24BFB1E81850A0E8185044BFFC
:1006600018C918C0BDE810405FEA827C24BF51F869
:10067000043B40F8043B08BF7047D20728BF31F85D
:10068000023B48BF11F8012B28BF20F8023B48BFAE
:1006900000F8012B704702F0FF0343EA032242EA0D
:1006A000024200F037B84FF0000200B513469446FE
:1006B0009646203922BFA0E80C50A0E80C50B1F1BA
:1006C0002001BFF4F7AF090728BFA0E80C5048BFCE
:1006D0000CC05DF804EB890028BF40F8042B08BF6C
:1006E000704748BF20F8022B11F0804F18BF00F868
:1006F000012B704770477047704710B500F02AF81B
:10070000006810BD10B5044600F024F8046010BD68
:100710004FF000020429C0F0128010F0030C3FF4E7
:10072000C4AFCCF1040CBCF1020F18BF00F8012BD0
:10073000A8BF20F8022BA1EB0C01FFF7B6BF5FEAC0
:10074000C17C24BF00F8012B00F8012B48BF00F842
:10075000012B704700487047F88900201FB584B00E
:1007600000200A9C06AB04AA02A90094AFF3008003
:1007700018B1DDE9020108B010BD0348204000F0C7
:1007800037F800200146F6E70000207C004870475B
:10079000F88900207546FFF7F9FFAE460500694667
:1007A000534620F00700854618B020B5FFF7CEFD70
:1007B000BDE820404FF000064FF000074FF0000862
:1007C0004FF0000B21F00701AC46ACE8C009ACE8E3
:1007D000C009ACE8C009ACE8C0098D46704710B547
:1007E0000446AFF300802046BDE81040FFF739BD56
:1007F00010B500F009F8BDE81040AFF30080002804
:1008000001D000F057B8704710B5022803D041015D
:1008100003D50DA112E0002010BD010101D50FA1EB
:100820000CE0C10001D511A108E0810001D512A1A1
:1008300004E0400001D513A100E0002115A000F064
:100840003FF8012010BD0000496E76616C6964209C
:100850004F7065726174696F6E000000446976695B
:100860006465204279205A65726F00004F76657288
:10087000666C6F7700000000556E646572666C6F81
:1008800077000000496E6578616374205265737566
:100890006C7400005349474650453A2041726974D0
:1008A000686D6574696320657863657074696F6EDF
:1008B0003A20000001491820ABBEFEE726000200E6
:1008C00070B505460C460A2000E06D1C00F011F8DA
:1008D00035B128780028F8D102E0641C00F009F84E
:1008E00014B120780028F8D1BDE870400A20AFF399
:1008F000008008B569468DF800000320ABBE08BD36
:1009000070470000B7EE000A80ED000A9FED060A6E
:1009100080ED010A9FED040A80ED020A9FED020AB4
:1009200080ED030A70470000000000002DE9F0414F
:100930002DED028B0746B0EE408A0C4615461E464A
:10094000D6ED024AB0EE644AD6ED014AF0EE643AC2
:10095000D6ED004AB0EE643AD5ED024AF0EE642AD4
:10096000D5ED014AB0EE642AD5ED004AF0EE641AE6
:10097000D4ED024AB0EE641AD4ED014AF0EE640AF6
:10098000D4ED004AB0EE640A384609F0A5F8BDEC93
:10099000028BBDE8F08100BF0EF062FC012011F077
:1009A00059F8F9E700B55F480088401C5D490880A8
:1009B0005D480088401C5C4908805C48007828B984
:1009C0000020584908805849088000BD57480078E1
:1009D000082841D2DFE800F0A304050607A34184FC
:1009E00000BF00BF00BF00204F490880504800787A
:1009F000012803D114204F4908800AE04E480078AE
:100A0000022806D14B4800880A2802DB0620494903
:100A100008804848008818B900200DF095FB1BE0BD
:100A2000444800884FF4FA7191FBF0F080B23D49E0
:100A3000098891FBF0F200FB121080B2394908805E
:100A400050B93E480078012806D13A48008800286D
:100A500002DD01200DF078FB61E0002031490880C3
:100A60003748807838B13748007820B901203549B7
:100A70000870354908703548007801280BD1344892
:100A80000078401C3249087008460078C82802D116
:100A900000202E4908702A48407800B32948007881
:100AA000012819D128480078002815DD274800784A
:100AB00090B920480088022811DB01200DF044FB8A
:100AC00021480078401E2049087001201F49087005
:100AD00000201F49087002E000201A4908701EE03B
:100AE0001448008818B900200DF02EFB16E01148BC
:100AF00000884FF4FA7191FBF0F080B2094909883F
:100B000091FBF0F200FB121080B20649088028B970
:100B10000A480078012801D10DF016FB00BF00BF84
:100B200000BF52E7C4050020C6050020BB0400201A
:100B3000CD050020C2050020BC040020CC0500200B
:100B40009C87002029060020280600202B06002074
:100B50002C06002010B501221021024804F09FFF4E
:100B600010BD00000000024010B500221021024814
:100B700004F095FF10BD0000000002407047000027
:100B800010B501221146024804F089FF10BD000093
:100B90000004024010B500220121024804F07FFF4A
:100BA00010BD00000004024010B543781B021BB2C8
:100BB0000478234300EE103AB8EEC01A1C4BD3ED74
:100BC000001A21EE211A81ED001AC3781B021BB214
:100BD0008478234300EE103AB8EEC01A144BD3EDDC
:100BE000001A21EE211A81ED011A43791B021BB272
:100BF0000479234300EE103AB8EEC01A0C4BD3ED43
:100C0000001A21EE211A81ED021A037A1B04C4791D
:100C100043EA04238479234300EE903AB8EE601A45
:100C2000DFED041A21EE211A82ED001A10BD00003A
:100C30003C00002000401C42704710B5044620468E
:100C400010F008FF10BD10B5044620460FF078FFE5
:100C500010BD00004278120212B203781A4300EE6F
:100C6000102AF8EEC00A144A92ED001A60EE810ACA
:100C7000C1ED000AC278120212B283781A4300EE64
:100C8000102AF8EEC00A0C4A92ED001A60EE810AB2
:100C9000C1ED010A4279120212B203791A4300EE41
:100CA000102AF8EEC00A044A92ED001A60EE810A9A
:100CB000C1ED020A704700004000002010B500247A
:100CC000FFF75CFFFFF7B8FF0FF0ACFA10B144F08C
:100CD000800402E00FF00CFA04430FF09BFC10B10B
:100CE00044F0400402E00FF01BFC0443204610BD1A
:100CF0002DE9FC4105460E46174600200090019064
:100D0000FFF732FF922000F0D1F806226946122048
:100D100000F0ACF8FFF71EFF9DF80100000200B2E2
:100D20009DF8001040EA010400EE104AB8EEC00A37
:100D30004C48D0ED000A20EE200A86ED000A9DF80E
:100D40000300000200B29DF8021040EA010400EE28
:100D5000104AB8EEC00A4348D0ED000A20EE200A3F
:100D600086ED010A9DF80500000200B29DF804100E
:100D700040EA010400EE104AB8EEC00A3948D0ED4E
:100D8000000A20EE200A86ED020AFFF703FF082280
:100D90006946002000F06AF8FFF7F2FE9DF80000B7
:100DA0000F2838D19DF80300000200B29DF8021010
:100DB00040EA010400EE104AB8EEC00A2A48D0ED1D
:100DC000000A20EE200A85ED000A9DF805000002C9
:100DD00000B29DF8041040EA010400EE104AB8EE9B
:100DE000C00A2148D0ED000A20EE200A85ED010A54
:100DF0009DF80700000200B29DF8061040EA0104C9
:100E000000EE104AB8EEC00A1748D0ED000A20EEF6
:100E1000200A85ED020AFFF7A7FEA22000F046F89F
:100E200002226946222000F021F8FFF793FE9DF888
:100E30000000C0009DF8011040EA6114B4F5806F15
:100E400002DBA4F5006004B200EE104AF8EEC00A1E
:100E5000B4EE001AB3EE070A00EE810A87ED000A2D
:100E6000BDE8FC813C0000204000002070B5064633
:100E70000C46154646F0800000F018F806E05520B4
:100E800000F014F82070641C681EC5B2002DF6D165
:100E900070BD70B504460D4644F0800000F006F8C1
:100EA000552000F003F8287070BD000001B582B035
:100EB0004FF47A70012301AA02A90090024806F0BB
:100EC00052F89DF804000EBDDC0D002010B502465E
:100ED0001378DB00547843EA6410B0F5806F02DBCE
:100EE000A0F5006318B200EE100AF8EEC00AB4EEE6
:100EF000001AB3EE070A00EE810A81ED000A10BD68
:100F000070B505460C462846FFF7D0FF2046FFF790
:100F1000CDFF70BD00BFFEE710B50821054806F003
:100F2000F3FD002004490870488008728880C8805A
:100F300010BD0000CC0F00208C190020474800781D
:100F400020B1012809D0022848D13FE000204349C0
:100F5000488088800872C88079E040488088401CBA
:100F60003E4988800846C088012801D100200870C9
:100F70003A4989884FF4967291FBF2F000EBD071F8
:100F80004910A0EB410139B93449097A21B98720C8
:100F90003249488001200872304989884FF496729E
:100FA00091FBF2F000EBD0714910A0EB4101012957
:100FB0000BD12A49097A012907D100202749488005
:100FC00008720846C088401CC88040E005202349BC
:100FD0004880002088800872C88038E01F488088D8
:100FE000401C1E4988800846C088032801D1002083
:100FF00008701A4989884FF4967291FBF2F000EB61
:10100000D0714910A0EB410139B91449097A21B9CD
:1010100087201249488001200872104989884FF4BE
:10102000967291FBF2F000EBD0714910A0EB4101F8
:1010300001290BD10949097A012907D10020074963
:10104000488008720846C088401CC88000BF00BFA6
:101050000248408802490968C86370478C1900201B
:10106000CC0F002010B5054803F0F2FF012002F07C
:101070001DFC024803F058FD10BD0000380D002093
:1010800010B5054804F02AF8022002F00FFC0248CF
:1010900003F04AFD10BD0000600D002070B504464D
:1010A0000D460020206160616062A0610120E06166
:1010B0002062002020606060A060E0602146284639
:1010C00003F0E2FB70BD000070B504460D46681EDB
:1010D000C6B206EB460101EB0611084A02EB81009D
:1010E0002146FFF7DBFF204604F043F82068406903
:1010F00040F002002168486170BD0000FC1900202A
:10110000F8B506460C4617461D460948046044607B
:10111000002007498860C860084605616B463A466A
:10112000304603F005FB08B10020F8BD0120FCE7C4
:10113000281C00202DE9F04180460C4615461E462D
:10114000069F200A0E4908704C70280A8870CD70DE
:10115000300A08714E71380A8871CF714FF40070EF
:101160000849086048600820086100208860C8605D
:101170000875054B024A404603F0DAFABDE8F081F3
:10118000E8020020D41B0020F80200202DE9F041E5
:1011900080460C4615461E46069F200A0E490870DA
:1011A0004C70280A8870CD70300A08714E71380A68
:1011B0008871CF7140F2FF1008490860486008202C
:1011C000086100208860C8600875054B024A4046E7
:1011D00003F0AEFABDE8F081E8020020D41B002045
:1011E000F8020020044890ED000ABCEEC00A10EEA0
:1011F000100A80B270470000C804002070B5044691
:101200000D462878697840EA0120C0F30A00208062
:101210002088A0F5806000B220806878C010A9788E
:1012200040EA4110C0F30A0060806088A0F5806049
:1012300000B26080A8788011E97840EA81002979BD
:1012400040EA8120C0F30A00A080A088A0F5806059
:1012500000B2A08028794010697940EAC110C0F33B
:101260000A00E080E088A0F5806000B2E080687944
:1012700000118008A0726879C0F30110E072A879AB
:10128000E97940EA012000B2A081287A697A40EA2F
:10129000012001B2E181A87AE97A40EA012001B295
:1012A0002182297BA174697BE174A87BE97B40EAF8
:1012B0000120A082287C697C40EA0120C0F30A005A
:1012C0002081B4F90800142806DCB4F9080010F1F4
:1012D000140F01DB002020812089A0F5806000B27E
:1012E0002081B4F90000142806DCB4F9000010F1E4
:1012F000140F01DB00202080B4F90200142806DC62
:10130000B4F9020010F1140F01DB00206080B4F981
:101310000400142806DCB4F9040010F1140F01DBFA
:101320000020A080B4F90600142806DCB4F90600F9
:1013300010F1140F01DB0020E08004F0B7FB0A4934
:1013400008600846006809490968401AB0F5FA7F44
:1013500007D98021064804F099FB03480068034937
:10136000086007F0F3FD70BD90000020940000209D
:10137000001002400149087070470000E40400209A
:1013800010B52DED0A8B0446B0EE408AF0EE608A6F
:1013900018EE100A14F092F941EC1C0BB0EE4C0A56
:1013A000F0EE6C0A0EF0FAFDB0EE40AAF0EE60AA84
:1013B00094ED000A10EE101A084614F07FF941EC83
:1013C0001C0BB0EE4C0AF0EE6C0A0EF0E7FDB0EE2E
:1013D00040BAF0EE60BA53EC1A2B51EC1B0B13F031
:1013E0006BFE41EC190B9FED510B53EC102B13F0DE
:1013F00053FB21D294ED000A10EE101A084614F0A7
:101400005DF941EC1A0BB0EE4A0AF0EE6A0A0EF0F2
:10141000C5FDB0EE409AF0EE609A9FED460B53EC9E
:10142000102B51EC190B13F012FD05D2B1EE040A8A
:1014300028EE800AF0EE408A18EE100A14F03EF909
:1014400041EC1C0BB0EE4C0AF0EE6C0A0EF0A6FD5F
:10145000B0EE40BAF0EE60BA94ED000A10EE101A49
:10146000084614F02BF941EC1C0BB0EE4C0AF0EEE0
:101470006C0A0EF093FDB0EE409AF0EE609A53ECD9
:101480001B2B51EC190B13F017FE41EC1A0B9FEDBF
:10149000270B53EC102B13F0DAFC05D2B2EE040A42
:1014A00028EE800AF0EE408A18EE900A14F006F951
:1014B00041EC190B94ED000A30EE480A10EE101AB8
:1014C000084614F0FBF841EC1B0BB0EE4B0AF0EEB3
:1014D0006B0A0EF063FDB0EE40AAF0EE60AA53EC8A
:1014E000192B51EC1A0B13F0D7FA02D284ED008AB3
:1014F00019E094ED000AB4EEC80AF1EE10FA05DD29
:1015000094ED000A30EE680A84ED000A94ED000ABA
:10151000B4EEC80AF1EE10FA05D294ED000A30EEEE
:10152000280A84ED000ABDEC0A8B10BD0000000003
:1015300000000000000000000000244010B5124828
:10154000007818B900201149087010BD0F480078C4
:1015500028B99FED0F0A0F4880ED000AF5E70B4808
:101560000078012804D0032805D0072809D105E018
:1015700002F0FAFC05E00CF0BFFE02E008F004FF08
:1015800000BF00BF00BFE0E7BA040020B90400209C
:1015900000000000E00400200948B0F84A000128DB
:1015A00004DA0120064981F84C0003E000200449D8
:1015B00081F84C0000200249A1F84A007047000061
:1015C0009C87002010B50246002004E012F8013B81
:1015D0004340044CE05C0B1EA1F10104A1B2F5D123
:1015E00010BD0000AF67010810B50EF03FF909F01B
:1015F0001FFCF3EE040AB7EE000A024807F086FC6F
:1016000010BD0000E082002010B509F047FD5A48E7
:101610000078022820D1594890ED061AF0EE410AD0
:10162000574890ED001AB0EE410A564809F081FA89
:10163000534880ED010A514890ED071AF0EE410A37
:101640004F4890ED011AB0EE410A4F4809F0EAF90F
:101650004B4880ED020A8EE047480078062820D1EA
:10166000464890ED061AF0EE410A454890ED001A02
:10167000B0EE410A454809F05CFA414880ED010AA4
:101680003E4890ED071AF0EE410A3D4890ED011AF0
:10169000B0EE410A3E4809F0C5F9394880ED020A2A
:1016A00069E035480078052820D1344890ED061AC5
:1016B000F0EE410A324890ED001AB0EE410A35488A
:1016C00009F037FA2E4880ED010A2C4890ED071AF0
:1016D000F0EE410A2A4890ED011AB0EE410A2E4878
:1016E00009F0A0F9264880ED020A44E0224800787B
:1016F000072820D1214890ED061AF0EE410A204833
:1017000090ED001AB0EE410A224809F012FA1C4886
:1017100080ED010A194890ED071AF0EE410A1848C9
:1017200090ED011AB0EE410A1B4809F07BF914480C
:1017300080ED020A1FE0114890ED061AF0EE410A12
:101740000F4890ED001AB0EE410A104809F0F1F987
:101750000B4880ED010A094890ED071AF0EE410AA6
:10176000074890ED011AB0EE410A094809F05AF90C
:10177000034880ED020A10BDBC0400205014002074
:10178000D4820020B0830020F0830020B0840020A9
:10179000F0840020B0850020F085002010B55A4864
:1017A0000078022820D1594890ED081AF0EE410A3D
:1017B000574890ED001AB0EE410A56480EF075F900
:1017C000534880ED010A514890ED091AF0EE410AA4
:1017D0004F4890ED011AB0EE410A4F480EF0DEF886
:1017E0004B4880ED020A8EE047480078062820D159
:1017F000464890ED081AF0EE410A454890ED001A6F
:10180000B0EE410A45480EF050F9414880ED010A1A
:101810003E4890ED091AF0EE410A3D4890ED011A5C
:10182000B0EE410A3E480EF0B9F8394880ED020AA0
:1018300069E035480078052820D1344890ED081A31
:10184000F0EE410A324890ED001AB0EE410A3548F8
:101850000EF02BF92E4880ED010A2C4890ED091A64
:10186000F0EE410A2A4890ED011AB0EE410A2E48E6
:101870000EF094F8264880ED020A44E022480078F1
:10188000072820D1214890ED081AF0EE410A20489F
:1018900090ED001AB0EE410A22480EF006F91C48FD
:1018A00080ED010A194890ED091AF0EE410A184836
:1018B00090ED011AB0EE410A1B480EF06FF8144883
:1018C00080ED020A1FE0114890ED081AF0EE410A7F
:1018D0000F4890ED001AB0EE410A10480EF0E5F8FE
:1018E0000B4880ED010A094890ED091AF0EE410A13
:1018F000074890ED011AB0EE410A09480EF04EF883
:10190000034880ED020A10BDBC040020241400200E
:10191000C8820020308300207083002030840020A3
:1019200070840020308500207085002000B52DEDEA
:10193000028B81B002F04CFE0DF0B0FC9D480078A7
:1019400008B39D4890ED000AB5EEC00AF1EE10FA1A
:1019500006D190ED040AB5EEC00AF1EE10FA0ED0F1
:1019600096480068401E9549086010B10CF0B6FB1F
:1019700005E000208F49087001209149087001B0EE
:10198000BDEC028B00BD012001F078FF012803D0DF
:101990008C480078002837D10CF0A0FBDFED8A0AD4
:1019A0009FED890A0CF09AFF884809F0FFFB8848F0
:1019B00009F0FCFB874809F0F9FB874809F0F6FBC2
:1019C000864809F0F3FB864809F0F0FB854809F0EA
:1019D000EDFB854809F0EAFB844809F0E7FB844801
:1019E00009F0E4FB834809F0E1FB834809F0DEFBE2
:1019F000824809F0DBFB824809F0D8FB00208149CE
:101A0000087081490870BAE780480078022816D02B
:101A1000694890ED030ADFED7E0A20EE200A7D483A
:101A200080ED000A644890ED040ADFED790A20EEAB
:101A3000200A794880ED000A0220744908700820C5
:101A400001F01CFF01280CD101F0CEFAB1EE400AE2
:101A5000B0EE408AF0EE480A9FED5B0A0CF03EFFC4
:101A60001FE0102001F00AFF01280AD101F0C2FA9C
:101A7000B1EE400AB0EE408ADFED530A0CF02EFFC3
:101A80000FE001F0B1FAB1EE400AB0EE408A01F089
:101A9000B1FAB1EE400AF0EE408AF0EE480A0CF0DE
:101AA0001DFF48480078012852D004287FD15B48A8
:101AB000407898B15948D0F8030000EE100AB5EE0E
:101AC000C00AF1EE10FA09D05448D0F8070000EE31
:101AD000100AB5EEC00AF1EE10FA03D101204A490E
:101AE000087006E04D484078012802D100204649A0
:101AF0000870FFF753FEFFF787FD494890ED020A93
:101B0000BDEEC00A10EE100A00B20090454890EDFC
:101B1000020ABDEEC00A10EE100A01B200231A46F6
:101B20004148FFF733FB244890ED030ADFED380A04
:101B300020EE200A374880ED000A1F4890ED040A85
:101B4000DFED330A20EE200A334880ED000A2EE054
:101B500006F032FF06F00AFF2F4890ED020ABDEEB4
:101B6000C00A10EE100A00B200902A4890ED020A56
:101B7000BDEEC00A10EE100A01B200231A462A4830
:101B8000FFF704FB0C4890ED030ADFED210A20EE7D
:101B9000200A264880ED000A074890ED040ADFED90
:101BA0001C0A20EE200A224880ED000A00BF00BF78
:101BB00000BFE4E6840400205813002090040020B5
:101BC000C5040020BA040020000000007086002038
:101BD000F08600203083002070830020B083002036
:101BE000F08300203084002070840020B084002026
:101BF000F08400203085002070850020B085002012
:101C0000F08500207004002071040020680400208A
:101C10008805B64124140020501400209C87002021
:101C2000D4820020C8820020380D002074040020D7
:101C300078040020014908707047000098000020D7
:101C400010B5024803F0E0FA10BD00002C1200208D
:101C500010B5024803F0D8FA10BD00008C12002025
:101C600010B5FE48C06C0068FD49884276D9FC4832
:101C700054380068F949C96C0968FA4A914201D19F
:101C8000202169E0F549C96C0968F54A483A914252
:101C900001D1202160E0F149C96C0968F14A603244
:101CA000914201D1202157E0EC49C96C0968EC4A06
:101CB0001832914201D120214EE0E849C96C0968EF
:101CC000E84A1832914201D1C91445E0E349C96C90
:101CD0000968E34A303A914201D1C9143CE0DF4936
:101CE000C96C0968DF4A7832914201D1C91433E0E6
:101CF000DA49C96C0968DA4A3032914201D1C91413
:101D00002AE0D649C96C0968D64A3032914202D1DC
:101D10004FF4001120E0D149C96C0968D04A183A43
:101D2000914202D14FF4001116E0CC49C96C096808
:101D3000CC4A9032914202D14FF400110CE0C749D5
:101D4000C96C0968C64A4832914203D14FF4001168
:101D500002E003E04FF00061084070E1BF48C06C52
:101D60000068C049A831884276D9BD485838006813
:101D7000BA49C96C0968BB4A914201D1202169E086
:101D8000B649C96C0968B64A483A914201D1202146
:101D900060E0B249C96C0968B24A6032914201D12F
:101DA000202157E0AD49C96C0968AD4A183291420B
:101DB00001D120214EE0A949C96C0968A94A18320D
:101DC000914201D1C91445E0A449C96C0968A44AEB
:101DD000303A914201D1C9143CE0A049C96C09686C
:101DE000A04A7832914201D1C91433E09B49C96CB1
:101DF00009689B4A3032914201D1C9142AE09749BF
:101E0000C96C0968974A3032914202D14FF40011EF
:101E100020E09249C96C0968914A183A914202D16E
:101E20004FF4001116E08D49C96C09688D4A903253
:101E3000914202D14FF400110CE08849C96C096845
:101E4000874A4832914203D14FF4001102E003E087
:101E50004FF000610840F2E08048C06C00688149A2
:101E60004831884276D97F48103840687B49C96C30
:101E700009687C4A914201D1202169E07749C96C07
:101E80000968774A483A914201D1202160E07349BC
:101E9000C96C0968734A6032914201D1202157E030
:101EA0006E49C96C09686E4A1832914201D12021ED
:101EB0004EE06A49C96C09686A4A1832914201D1F8
:101EC000C91445E06549C96C0968654A303A9142D0
:101ED00001D1C9143CE06149C96C0968614A783292
:101EE000914201D1C91433E05C49C96C09685C4A6C
:101EF0003032914201D1C9142AE05849C96C0968AD
:101F0000584A3032914202D14FF4001120E0534937
:101F1000C96C0968524A183A914202D14FF4001133
:101F200016E04E49C96C09684E4A9032914202D17E
:101F30004FF400110CE04949C96C0968484A48321D
:101F4000914203D14FF4001102E003E04FF0006131
:101F5000084074E04348103800684049C96C09687B
:101F6000404A914201D1202168E03C49C96C09688E
:101F70003B4A483A914201D120215FE03749C96C80
:101F80000968384A6032914201D1202156E0334934
:101F9000C96C0968324A1832914201D120214DE0C2
:101FA0002E49C96C09682F4A1832914201D1C914CF
:101FB00044E02A49C96C0968294A303A914201D162
:101FC000C9143BE02549C96C0968264A7832914218
:101FD00001D1C91432E02149C96C0968204A303264
:101FE000914201D1C91429E01C49C96C09681D4AF4
:101FF0003032914202D14FF400111FE01749C96CF1
:102000000968174A183A914202D14FF4001115E0BD
:102010001249C96C0968134A9032914202D14FF4B7
:1020200000110BE00D49C96C09680D4A4832914214
:1020300002D14FF4001101E04FF000610840002888
:102040006FD00648C06C0068054988427BD90348B8
:10205000C06C00680349884208D105E0DC0D00200F
:102060005864024010600240202068E0FE48C06CC6
:102070000068FE49884201D1202060E0FA48C06C27
:102080000068FB49884201D1202058E0F648C06C26
:102090000068F6496031884201D120204FE0F248C3
:1020A000C06C0068F2494839884201D1C01446E04A
:1020B000ED48C06C0068ED491831884201D1C01468
:1020C0003DE0E948C06C0068E9491831884201D117
:1020D000C01434E0E448C06C0068E44978318842B8
:1020E00001D1C0142BE0E048C06C0068E0493039F1
:1020F000884202D14FF4001021E0DB48C06C006838
:10210000DA493031884202D14FF4001017E0D64846
:10211000C06C0068D6493031884204D14FF40010B9
:102120000DE0DFE10FE0D048C06C0068CF4990318E
:10213000884202D14FF4001001E04FF00060CB491B
:10214000091F08606AE1C848C06C0068C849483186
:10215000884274D9C448C06C0068C5496039884257
:1021600001D1202066E0C048C06C0068BF498842A9
:1021700001D120205EE0BC48C06C0068BC498842A8
:1021800001D1202056E0B848C06C0068B7496031E2
:10219000884201D120204DE0B348C06C0068B449AA
:1021A0004839884201D1C01444E0AF48C06C00688F
:1021B000AE491831884201D1C0143BE0AA48C06C36
:1021C0000068AB491831884201D1C01432E0A648FA
:1021D000C06C0068A5497831884201D1C01429E05B
:1021E000A148C06C0068A2493039884202D14FF43E
:1021F00000101FE09C48C06C00689C493031884248
:1022000002D14FF4001015E09748C06C006898495F
:102210003031884202D14FF400100BE09248C06C7C
:10222000006892499031884202D14FF4001001E0D9
:102230004FF000608D4908390860EFE0FFE78A48F9
:10224000C06C00688A491839884274D98648C06CC5
:10225000006887496039884201D1202066E08248C1
:10226000C06C00688149884201D120205EE07E4830
:10227000C06C00687E49884201D1202056E07A482F
:10228000C06C006879496031884201D120204DE05E
:102290007548C06C006876494839884201D1C0143D
:1022A00044E07148C06C006870491831884201D11F
:1022B000C0143BE06C48C06C00686D49183188421E
:1022C00001D1C01432E06848C06C006867497831B9
:1022D000884201D1C01429E06348C06C0068644999
:1022E0003039884202D14FF400101FE05E48C06CC4
:1022F00000685E493031884202D14FF4001015E089
:102300005948C06C00685A493031884202D14FF4B4
:1023100000100BE05448C06C00685449903188426A
:1023200002D14FF4001001E04FF0006050497039C5
:10233000C86073E0FFE74C48C06C00684C496039E6
:10234000884201D1202066E04748C06C00684749B8
:10235000884201D120205EE04348C06C00684449B7
:10236000884201D1202056E03F48C06C00683F49B8
:102370006031884201D120204DE03B48C06C0068AC
:102380003B494839884201D1C01444E03648C06C0A
:10239000006836491831884201D1C0143BE0324808
:1023A000C06C006832491831884201D1C01432E053
:1023B0002D48C06C00682D497831884201D1C01485
:1023C00029E02948C06C006829493039884202D187
:1023D0004FF400101FE02448C06C006823493031DE
:1023E000884202D14FF4001015E01F48C06C00680D
:1023F0001F493031884202D14FF400100BE01A48D7
:10240000C06C006819499031884202D14FF4001025
:1024100001E04FF000601649703988601548007877
:1024200000F0020078B11348007820F00200114952
:1024300008700846007840F0040008700122114638
:102440000D4803F02CFB0D48007800F00200E0B1CD
:102450000A48007820F00200084908700846007811
:1024600040F0040008700BE0DC0D00201064024016
:102470007060024025030020000402402603002073
:1024800001221021184803F00AFB1848007800F0D8
:10249000020078B11548007820F002001349087056
:1024A0000846007840F004000870012210210E4810
:1024B00003F0F5FA0EF0B4FE0D48007800F00400C9
:1024C00080B10B48007820F00400094908700846E4
:1024D000007840F0080008700648006840F00100ED
:1024E0000449086010BD00000000024027030020DE
:1024F00025030020103C014010B5024802F084FE84
:1025000010BD0000CC1000200146087810381823B8
:10251000B0FBF3F20848805CC865032A05D9086857
:102520006FF30900001D886503E008686FF3090078
:102530008865886D70470000C76801080146002063
:102540008A6A8B69CBB932B1012A0DD0022A03D035
:10255000032A10D10EE000BFCB6A03F08073B3F101
:10256000807F00D1012007E0CB6AB3F1C07F00D1AA
:10257000012001E000E000BF34E08B69B3F5005FAB
:102580001AD132B1012A07D0022A03D0032A11D16D
:102590000AE000BF01200EE0CB6A03F08073B3F1C4
:1025A000807F00D1012006E0CB6AB3F1C07F00D16B
:1025B000012000E000BF15E032B1012A05D0022A57
:1025C00004D0032A0CD103E000BF00BF012008E0C3
:1025D000CB6A03F08073B3F1807F00D1012000E06B
:1025E00000BF00BF704730B50468246824F480241D
:1025F00005682C60046863608468402C04D104681A
:10260000A2600468E16003E00468A1600468E2601D
:1026100030BD000010B502F01BF800EE100AB8EE55
:10262000C00ADFEDF70A20EE200AF64880ED000A26
:1026300002F014F800EE100AB8EEC00AB1EE400A3B
:10264000DFEDF10A20EE200AEE4880ED010AEF48A6
:1026500090ED000AEB4880ED040AED48007803286D
:1026600074D10121002001F065FF00B3E848007833
:10267000022802D16FF0950000E0962000EE100ACB
:10268000B8EEC00ADF4880ED030A0121052001F001
:1026900051FF10B19FEDDF0A01E0B7EE000AD94803
:1026A000D0ED030A20EE200A80ED030A32E001217A
:1026B000084601F03FFF40B3D5480078022802D118
:1026C0006FF0950000E0962000EE100AB8EEC00A08
:1026D000CC4880ED030A0121052001F02BFF10B149
:1026E0009FEDCC0A01E0B7EE000AC648D0ED030A20
:1026F00020EE200A80ED030A90ED030AFFEE000AA7
:1027000020EE200A80ED030A04E09FEDC30ABD48D5
:1027100080ED030A0121022001F00CFF48B3BC4800
:102720000078022802D16FF0950000E0962000EEBC
:10273000100AB8EEC00AB34880ED020A0121052054
:1027400001F0F8FE18B19FEDB30A02E03DE0B7EEEC
:10275000000AAC48D0ED020A20EE200A80ED020A01
:1027600090ED020AFFEE000A20EE200A80ED020A38
:10277000C8E10121032001F0DDFE00B3A448007888
:10278000022802D16FF0950000E0962000EE100ABA
:10279000B8EEC00A9B4880ED020A0121052001F035
:1027A000C9FE10B19FED9B0A01E0B7EE000A954803
:1027B000D0ED020A20EE200A80ED020AA2E19FED90
:1027C000960A904880ED020A9CE19448007801281E
:1027D00074D10121002001F0ADFE00B38C480078D7
:1027E000022801D18E4801E04FF4257000EE100A56
:1027F000B8EEC00A834880ED030A0121052001F0EC
:1028000099FE10B19FED830A01E0B7EE000A7D4802
:10281000D0ED030A20EE200A80ED030A32E0012108
:10282000084601F087FE40B379480078022801D1BC
:102830007B4801E04FF4257000EE100AB8EEC00AA4
:10284000704880ED030A0121052001F073FE10B1EC
:102850009FED700A01E0B7EE000A6A48D0ED030A66
:1028600020EE200A80ED030A90ED030AFFEE000A35
:1028700020EE200A80ED030A04E09FED670A61481C
:1028800080ED030A0121022001F054FE48B36048A4
:102890000078022801D1624801E04FF4257000EE73
:1028A000100AB8EEC00A574880ED020A012105203F
:1028B00001F040FE18B19FED570A02E03DE0B7EE8F
:1028C000000A5048D0ED020A20EE200A80ED020AEC
:1028D00090ED020AFFEE000A20EE200A80ED020AC7
:1028E00010E10121032001F025FE00B348480078E3
:1028F000022801D14A4801E04FF4257000EE100A89
:10290000B8EEC00A3F4880ED020A0121052001F01F
:1029100011FE10B19FED3F0A01E0B7EE000A394801
:10292000D0ED020A20EE200A80ED020AEAE09FEDD7
:102930003A0A344880ED020AE4E00121002001F067
:10294000F9FD50B332480078022801D1344801E043
:102950004FF4257000EE100AB8EEC00A314880ED41
:10296000000A0121052001F0E5FD10B19FED290AC3
:1029700001E0B7EE000A2B48D0ED000A20EE200A55
:1029800080ED000A2848D0ED000A264890ED000AA4
:102990001C480C30FEF7F4FC4DE00121084601F024
:1029A000C9FD60B31A480078022801D11C4801E033
:1029B0004FF4257000EE100AB8EEC00A194880EDF9
:1029C000000A0121052001F0B5FD10B19FED110AAB
:1029D00001E0B7EE000A1348D0ED000A20EE200A0D
:1029E00080ED000A1048D0ED000A0E4890ED000A74
:1029F000B1EE400A03480C30FEF7C2FC1BE015E0C4
:102A0000CDCC4C3DD08900200AD7233CE0040020E7
:102A1000B9040020CDCCCC3D00000000EC04002027
:102A20006CFDFFFF680600206C0600201FED060A03
:102A3000AC4880ED030A0121022001F07BFD60B368
:102A4000A9480078022801D1A84801E04FF4257078
:102A500000EE100AB8EEC00AA54880ED000A012178
:102A6000052001F067FD10B11FED160A01E0B7EE79
:102A7000000A9F48D0ED000A20EE200A80ED000AEF
:102A80009C48D0ED000A9A4890ED000AB1EE400A49
:102A900094480830FEF774FC34E00121032001F073
:102AA00049FD50B390480078022801D18F4801E0D9
:102AB0004FF4257000EE100AB8EEC00A8C4880ED85
:102AC000000A0121052001F035FD10B11FED2F0A8C
:102AD00001E0B7EE000A8648D0ED000A20EE200A99
:102AE00080ED000A8348D0ED000A814890ED000A8D
:102AF0007C480830FEF744FC04E01FED390A7948B1
:102B000080ED020A01210B2001F014FD30B10220FA
:102B10000BF03CFB06200BF0D5FA05E006200BF08D
:102B200035FB01200BF0CEFA01210E2001F002FD51
:102B300048B100207049087005200BF027FB0620E3
:102B40000BF068FA14E06D48808AB0F5804F0FD022
:102B50006948007860B901206749087006200BF0C9
:102B600015FB67480078062802D101200BF052FAC5
:102B700001210A2001F0DEFC48B100206149087003
:102B800007200BF003FB06200BF044FA14E05B482F
:102B9000808AB0F5806F0FD05A48007860B9012064
:102BA0005849087006200BF0F1FA554800780628BD
:102BB00002D101200BF02EFA0121042001F0BAFC11
:102BC00030B103200BF07EFA01204F49087008E075
:102BD0004D480078012804D10BF074FA00204A49CE
:102BE00008700221062001F0A5FC18B10120474918
:102BF000087002E000204549087002210D2001F014
:102C000099FC18B10120FEF7B5FB02E00020FEF7A9
:102C1000B1FB0021102001F08DFC68B13C48007828
:102C200050B93C480088002806DD00203A49087069
:102C300001200BF089FA0FE00221102001F07AFC4C
:102C400038B134480088002803DD0120324908707B
:102C500002E00020304908700121052001F06AFCE3
:102C600040B10121082001F065FC58B1002006F0B8
:102C700009FF07E00121082001F05CFC10B10120F0
:102C800006F000FF0121052001F054FC40B10121B4
:102C9000072001F04FFC58B100200BF0BBF907E012
:102CA0000121072001F046FC10B101200BF0B2F920
:102CB0000121112001F03EFC18B104200BF008FAAC
:102CC00002E001200BF004FA01210F2001F032FC98
:102CD00018B101201149087002E000200F49087066
:102CE00010BD0000D0890020B90400206CFDFFFF5A
:102CF000680600206C060020750600208013002066
:102D0000BB0400207706002070060020CD050020BF
:102D1000A4890020C2050020CC0500206206002006
:102D200010B52DED068B9B48007808284CD2DFE8C3
:102D300000F09404054C4B4B93CC00BF01F030FCE9
:102D4000044611F071FE41EC190B9FED930B53EC0F
:102D5000102B11F0DDFE41EC180B11F0A5F9904994
:102D6000086001F023FC044611F05EFE41EC1A0BF2
:102D70009FED8C0B53EC102B11F0CAFE41EC190B9C
:102D80009FED8A0B53EC102B11F022FC41EC180B39
:102D900011F08AF98249486001F00EFC00EE100A39
:102DA000B8EEC00A7E4880ED020A01F00BFC00EE8E
:102DB000100AB8EEC00A7A4880ED030A7D4890ED0B
:102DC000000A774880ED040ABBE001F0E9FB044605
:102DD00011F02AFE41EC190B9FED6F0B53EC102BF9
:102DE00011F096FE41EC180B11F05EF96C49086089
:102DF00001F0DCFB044611F017FE41EC1A0B9FEDCD
:102E0000690B53EC102B11F083FE41EC190B9FED75
:102E1000670B53EC102B11F0DBFB41EC180B11F09E
:102E200043F95F49486001F0C7FB00EE100AB8EEB5
:102E3000C00A5B4880ED020A01F0C4FB00EE100AF4
:102E4000B8EEC00A564880ED030A5A4890ED000AD1
:102E5000534880ED040A74E000BF01F0A1FB044672
:102E600011F0E2FD41EC190B9FED4B0B53EC102BD5
:102E700011F04EFE41EC180B11F016F948490860AC
:102E800001F094FB044611F0CFFD41EC1A0B9FEDCD
:102E9000450B53EC102B11F03BFE41EC190B9FED51
:102EA000430B53EC102B11F093FB41EC180B11F07A
:102EB000FBF83B4948609FED400A084680ED040A54
:102EC00080ED030A80ED020A3BE09FED3B0A3448A7
:102ED00080ED000A01F06AFB044611F0A5FD41EC0B
:102EE0001A0B9FED300B53EC102B11F011FE41EC3F
:102EF000190B9FED2E0B53EC102B11F069FB41ECDD
:102F0000180B11F0D1F82649486001F055FB00EE8E
:102F1000100AB8EEC00A224880ED020A01F052FB06
:102F200000EE100AB8EEC00A1D4880ED030A01F059
:102F300037FB00EE100AB8EEC00A194880ED040A0B
:102F400000BF00BF01F03EFB10F5257F04D19FEDCF
:102F50001A0A134880ED030A012000F08FFC0128B3
:102F600014D19FED150A0E4880ED000A9FED120A5C
:102F700080ED010A9FED100A80ED020A9FED0E0A16
:102F800080ED030A9FED0C0A80ED040ABDEC068B70
:102F900010BD0000B9040020FCA9F1D24D62603FD1
:102FA000D0890020333333333333D33F0000000064
:102FB00000A08440E00400200000000010B5094893
:102FC000007850B1012802D0022809D102E0FFF7B1
:102FD000A7FE05E0FFF71EFB02E008F002FA00BFC3
:102FE00000BF10BD98000020014890ED010A704715
:102FF000D0890020014890ED000A7047D089002058
:1030000010B501F089FB012804D0022872D00328F2
:1030100071D188E101F086FB012804D002286BD031
:10302000032816D116E0FD48007802280ED00120B2
:103030000BF04EF801200BF045F800200AF0EAFFF3
:1030400006200BF0A3F8002006F01CFD0220FEF77E
:10305000F1FD66E1F1480078012805D00120FEF776
:10306000E9FD00200AF0D6FF01200BF02BF8042028
:103070000BF02EF806200BF089F801F0D3FAE8499E
:1030800088421BDCE7480078C0B9E748007828B9D7
:10309000E6480078401CE549087004E0E348007801
:1030A000401EE2490870E14800783C2802DCDF4815
:1030B000007878B90120DB4908700BE001F0B2FA22
:1030C00010F1820F06DBD7480078012802D10020DA
:1030D000D4490870D54800783C282ADD0BF05CF80C
:1030E000192818D009DC0F280CD012280ED0162869
:1030F0001AD10FE00BE24EE24FE01E280FD04B2812
:1031000012D10DE001200AF085FF11E002200AF043
:1031100081FF0DE000BF03200AF07CFF08E000BF44
:1031200004200AF077FF03E001200AF073FF00BFDC
:1031300005E0BE48007810B900200AF06BFF01F0EE
:1031400071FA002815DD01F06DFAB0F5A57F10DAEF
:10315000B748006868B9B7480088002809DD012031
:10316000B34908600020B449087001200AF0ECFF60
:1031700005E001F057FA10B90020AD49086001F0F0
:1031800051FA40F27621884203DB0120AA490870F7
:1031900002E00020A8490870C3E0A0480078012898
:1031A00005D00120FEF746FD00200AF033FF06207F
:1031B0000AF088FF04200AF08BFF01F003FA984917
:1031C0001439884203DC05200AF0E0FF02E0022007
:1031D0000AF0DCFF01F026FA914988421BDC97488F
:1031E0000078C0B99048007828B990480078401C11
:1031F0008E49087004E08D480078401E8B490870A5
:103200008A4800783C2802DC8848007878B9012098
:103210008A4908700BE001F005FA10F1820F06DB15
:1032200086480078012802D10020844908707F4830
:1032300000783C2827DD0AF0AFFF192815D006DCFE
:103240000F2809D012280BD0162817D10CE01E2801
:103250000FD04B2812D10DE001200AF0DBFE11E067
:1032600002200AF0D7FE0DE000BF03200AF0D2FED4
:1032700008E000BF04200AF0CDFE03E001200AF0C0
:10328000C9FE00BF05E06948007810B900200AF0C7
:10329000C1FE01F091F9002815DA01F08DF910F165
:1032A0006E0F10DD6248006868B962480088002827
:1032B00009DD01205E49086000205F490870012097
:1032C0000AF042FF05E001F077F910B900205849F3
:1032D000086001F071F95249884203DC0120564927
:1032E000087002E000205449087001F09BF940F298
:1032F0007621884203DB06200AF08CFE06E04A486D
:103300000078062802D100200AF084FE01F05AF964
:10331000B0F5257F02D10EF07AFA01E00EF078FACE
:1033200000BF00BF38E10120FEF784FC01200AF055
:10333000CFFE01F0F7F9012804D002286DD0032850
:103340005BD15BE001200AF0BDFE01200AF0C0FE67
:103350000AF022FF192815D006DC0F2809D0122800
:103360000BD0162817D10CE01E280FD04B2812D1F5
:103370000DE001200AF04EFE11E002200AF04AFEA4
:103380000DE000BF03200AF045FE08E000BF042066
:103390000AF040FE03E001200AF03CFE00BF00BF3F
:1033A00001F040F9002815DD01F03CF9B0F5A57FEA
:1033B00010DA1F48006868B91E480088002809DD37
:1033C00001201B49086000201B49087001200AF0F9
:1033D000BBFE05E001F026F910B900201449086091
:1033E00001F020F940F27621884203DB01201249E6
:1033F000087002E000201049087086E001200AF001
:1034000067FE00200AF006FE01F00CF910F1320F01
:1034100023DC03200AF056FE12E036E0980000207C
:103420008AFDFFFF51060020BB040020500600204B
:1034300054060020C2050020CC05002052060020C2
:1034400001F0F0F85F49884203DC0120FDF792FFAC
:1034500006E00020FDF78EFF02E001200AF032FEB8
:103460005948007801280CD101F0DCF840F28A219B
:10347000884203DB0120FDF77DFF02E00020FDF71D
:1034800079FF0020514908703FE006200AF01AFE3B
:1034900001200AF01DFE01F0C5F810F1640F0FDAEB
:1034A00007200AF0B7FD01F0BDF810F5167F03DC28
:1034B00001204749087006E000204549087002E0F5
:1034C00000200AF0A7FD01F0ADF8B0F5167F15DD7C
:1034D00040480078012811D100203E4908703E483C
:1034E0000078012803D1002006F0CCFA0CE03A481D
:1034F000007848B9012006F0C5FA05E001F092F81D
:1035000010B901203349087000BF00BF44E000201B
:10351000FEF790FB07F065FF00203049087005F0CA
:103520007BFD01F07FF810F5257F15D12C48007840
:10353000012811D12B480088401C2A4908800846E0
:103540000088642814D107F05AFF0120264908702A
:103550000020234908700BE001F064F840B9002016
:103560002049088001201E49087000201E4908706B
:1035700001F058F8B0F5167F03DB01201B490870F5
:1035800005E001F04FF810B900201849087000203C
:103590000E49087000E000BF00BF01F0BDF801282F
:1035A00003D000200D4908700AE001F0B5F80128A9
:1035B00006D101F0B7F8012802D1002007490870B0
:1035C00010BD000076FDFFFFB90400206306002057
:1035D000CC0500205C060020CE050020500600200F
:1035E000600600205E0600206106002064060020C0
:1035F00001460A2900DC09B9002070472420214A2D
:1036000010700B293CD2DFE801F03B060B10151AB5
:103610001F24292F350005201A4A50710620ECE797
:103620000920184A50720A20E7E70D20154A507306
:103630000E20E2E71120134A50741220DDE7152016
:10364000104A50751620D8E719200E4A50761A20D5
:10365000D3E71D200B4A50771E20CEE72120094AD0
:1036600082F821002220C8E72520064A82F825009A
:103670002620C2E72920034A82F829002A20BCE735
:103680000020BAE72C13002011B52DED020B0446E3
:103690000A2C00DC04B91EBD0B2C43D2DFE804F079
:1036A00042060C12181E242A30363C0001221F4903
:1036B000684600F04BFC35E005221C49684600F0E6
:1036C00045FC2FE009221949684600F03FFC29E03B
:1036D0000D221649684600F039FC23E011221349F7
:1036E000684600F033FC1DE015221049684600F0E2
:1036F0002DFC17E019220D49684600F027FC11E067
:103700001D220A49684600F021FC0BE021220749EE
:10371000684600F01BFC05E025220449684600F0DD
:1037200015FC00BF00BF00BFB5E700002C13002050
:103730002DED068B00BF494890ED040A10EE101ADB
:10374000084611F0BBFF41EC1A0B9FED450B53EC03
:10375000102B11F0DDF941EC190B10F0A5FC08EE6F
:10376000100A0120B0EE480AFFF78EFF3B4890EDAB
:10377000000A10EE101A084611F0A0FF41EC1A0BD7
:103780009FED370B53EC102B11F0C2F941EC190BE4
:1037900010F08AFC08EE100A0220B0EE480AFFF78B
:1037A00073FF2E4890ED050A10EE101A084611F02E
:1037B00085FF41EC1A0B9FED2A0B53EC102B11F0F7
:1037C000A7F941EC190B10F06FFC08EE100A03206A
:1037D000B0EE480AFFF758FF204890ED010AB1EE1D
:1037E000400A10EE101A084611F068FF41EC1A0B5F
:1037F0009FED1B0B53EC102B11F08AF941EC190BC8
:1038000010F052FC08EE100A0420B0EE480AFFF750
:103810003BFF0420FFF7ECFE13490870002013491A
:10382000087011E000BF1248006800F04000002856
:10383000F9D010480D490978405C0D4948600B48A3
:103840000078401C09490870084800780649097842
:103850008842E7DB30200EF0FDF86CE78C89002011
:103860009A9999999999B93F1D0000201C00002050
:10387000001001402C130020704700000146B1F5F4
:10388000807F08D9084800680840884201D001209C
:1038900070470020FCE704480068084008B9012090
:1038A000F6E70020F4E700008C060020034931F819
:1038B0001010491C014A22F810107047E4890020BA
:1038C00000B500231DE0104A32F813100F4A32F8F9
:1038D000130000F0DFFB38B1012098400C49096863
:1038E00081430B48016006E00120984008490968BF
:1038F0000843074908600020044921F81300581CB8
:10390000C3B20A2BDFDB00BD78060020E48900206B
:103910008C06002010B54FF47A7242F210719FEDC0
:103920000D1ADFED0D0A9FED0D0A0D4807F066FC3C
:103930004FF47A7242F21C519FED071ADFED090A2B
:103940009FED090A094807F059FC40F2DC5008498C
:10395000488110BDCDCC8C3F00000000CDCCCC3ECA
:10396000E08800206F12033C14AE3740208900200D
:10397000A489002010B59D4890ED060AB8EEC00A53
:103980009B4880ED010A9948B0F9000000EE100A4A
:10399000B8EEC00A964880ED030A9648007820B138
:1039A0008020FFF76BFF012806D107F0F3FC002011
:1039B00091490870C88010BD90480088002803DC39
:1039C00000208D49C880F6E78B48B0F904007828BC
:1039D0006FDD05F087FAB8B387488088401C00B2D5
:1039E00085498880B1F90410782291FBF2F000EB50
:1039F000D0714910A0EB410169B97F49897801294B
:103A000009D17D4880694FF6F87108447A49886188
:103A10000020887018E07849B1F90410782291FBF1
:103A2000F2F000EBD0714910A0EB410101290BD15C
:103A30007149897841B970488069A0F57F40F838AC
:103A40006D49886101208870684989696A4A92696C
:103A5000881A002801DB014600E0414247F6FC726B
:103A6000914205DC0020644948708861888020E02C
:103A70005F4890ED011AF0EE410A5F4890ED061A9A
:103A8000B8EEC11AB0EE410A5D480AF091FB584801
:103A900080ED020A90ED031AF0EE410A90ED021A51
:103AA000B0EE410A57480AF083FB514880ED040A02
:103AB00081E75148C088002872DD504800880028FE
:103AC00003DC00204C49C88075E74B48007870B98A
:103AD00001204949087045488069C8600846416925
:103AE000C088C0EB403001EB8000434948613F494A
:103AF0008969414AD268881A002801DB014600E042
:103B000041423D4AD288C2EB423241F6FF73C3EBD9
:103B1000820291420BDB00203749C8800870487050
:103B200088610846C0880861002088800FE02F491E
:103B30008969314AD268881A002801DB014600E011
:103B4000414247F6FC7291FBF2F12B4A116105F0FC
:103B5000C9F9A0B128488088401C00B22649888055
:103B60000846B0F9040078281DDD012048708870EF
:103B70001E488069A0F57F40F838886113E01E4830
:103B8000B0F90400002806DD1B4880880A3800B21E
:103B90001949888007E000201749888003E0FFE783
:103BA00000201549C880124890ED011AF0EE410A34
:103BB000114890ED051AB8EEC11AB0EE410A10484E
:103BC0000AF0F6FA0A4880ED020A90ED031AF0EEC8
:103BD000410A90ED021AB0EE410A0A480AF0E8FAEA
:103BE000034880ED040A00BFE5E60000081C002041
:103BF00060890020BB040020A4890020C2050020A9
:103C0000E08800202089002010B5012001F028FE66
:103C100010BD10B5082001F023FE10BD10B5102016
:103C200001F01EFE10BD10B5202001F019FE10BDE0
:103C30007047000010B5002201B909E0012901D147
:103C40000A0205E0022901D10A0201E04FF44072A4
:103C50000E4B1B6823F440730C4C236023461B68F7
:103C60001343236023461B6823F0F8032360234695
:103C70001B68022444EAC0042343044C2360234607
:103C80001B6843F48033236010BD0000103C0240E9
:103C90001C48006800F40070B0B11A48006820F4B5
:103CA00000701849086000BF0846006840F40060D2
:103CB00008600846006820F40060086000BF0846FD
:103CC000006840F4007008600E48006800F48060EE
:103CD000B0B10C48006820F480600A49086000BF59
:103CE0000846006840F4805008600846006820F4E8
:103CF0008050086000BF0846006840F4806008609B
:103D000070470000003C02400A4A126822F44072E8
:103D1000084B1A601A46126842F004021A601A46EA
:103D200012684FF4803343EA00231A43014B1A60B0
:103D300070470000103C0240074A126822F44072AB
:103D4000054B1A601A4612681A601A46126842F049
:103D500001021A6001707047103C024010B50D4915
:103D6000096821F440710B4C21602146096841F437
:103D7000407121602146096841F001012160026023
:103D800000BF00BF00BFBFF36F8F00BF00BF00BF09
:103D9000436010BD103C0240084A126822F4407291
:103DA000064B1A601A46126842F480721A601A466C
:103DB000126842F001021A6001807047103C024014
:103DC000084A126822F44072064B1A601A461268BA
:103DD00042F400721A601A46126842F001021A6038
:103DE00001607047103C02402348006800F010005A
:103DF00040B12248C06940F010002049C86110203D
:103E00001D4908601C48006800F0200040B11B48B4
:103E1000C06940F008001949C861202016490860AF
:103E20001548006800F0400040B11448C06940F0F7
:103E300004001249C86140200F4908600E4800681C
:103E400000F0800040B10D48C06940F002000B490D
:103E5000C8618020084908600748006800F0020037
:103E600040B10648C06940F020000449C861022002
:103E700001490860704700000C3C024068200020A7
:103E800070B50446002500201449C86101F00EFEFB
:103E9000054609E0601C38B124B101F007FE401B63
:103EA000A04201D9032070BD0D48006800F48030A5
:103EB0000028EFD10A48006800F0010010B101208D
:103EC000074908600648006800F0F20018B1FFF7E3
:103ED0008BFF0120E7E70020E5E7000068200020D5
:103EE0000C3C024010B52DED068B0446204610F028
:103EF000BFFD41EC1A0B53EC1A2B9FED0A0B51EC52
:103F0000100B10F065FB41EC190B9FED080B53EC07
:103F1000102B10F0FDFD41EC180B10F017FDBDEC5F
:103F2000068B10BD000000000000F03F0000000004
:103F300000408F4090ED000ABCEEC00A10EE101A4F
:103F4000014AD172704700007005002030B5034669
:103F50001C788C545D78541C0D559D78941C0D551F
:103F6000DD78D41C0D5530BD10B52DED048B3E48C9
:103F70000078012843D13D480088401C00B23B49ED
:103F800008803B49081F06F00FFC3A498989A1F5D2
:103F9000E850623810F048FD41EC190BB0EE490AC8
:103FA000F0EE690A0BF0FAFFB0EE408AF0EE608A9C
:103FB0009FED310B53EC102B51EC180B10F06CFDF6
:103FC0000CD82F480078401CC0B22D490870322808
:103FD00004DD002024490870294908702348B0F9FD
:103FE0000000B0F57A7F15DD1F48007890B1002001
:103FF0001D4908701D490880214908700AE0002009
:104000001A4908801F480078012803D11849081F61
:1040100006F0CAFB17488089A0F5E850623800EE28
:10402000100AB8EEC00A184880ED000A154800785A
:10403000012807D1144890ED000ADFED140A30EE94
:10404000600A02E0104890ED000A0F4880ED000A77
:10405000D0ED000A9FED0E0A04F0CEF90A4880ED7B
:10406000000ABDEC048B10BDEC040020EE0400201F
:10407000DC890020141B00200000000000005940D3
:10408000F004002063060020E004002000C07F440C
:104090000000000002468A4201DA01207047002039
:1040A000FCE7000010B5FE48B0F9000000EE100A71
:1040B000B8EEC00AFB4880ED000AF948B0F92000CC
:1040C00000EE100AB8EEC00AF64880ED010AF64884
:1040D000007802287ED1F548007800287AD0F4488C
:1040E0000078022803D1002004F096FF02E00120AE
:1040F00004F092FF0AF050F8162852D004DC0F2882
:1041000007D0122867D128E01E2872D04B2862D130
:1041100070E00220E7490870E748D0ED000AE74860
:10412000B0F9000000EE100AB8EEC00A30EE800AC6
:10413000DC4880ED040AE048D0ED000ADF48B0F921
:10414000000000EE100AB8EEC00A30EE800AB1EEB0
:10415000400AD44880ED050A94E00320D549087050
:10416000D548D0ED010AD648B0F9000000EE100A9B
:10417000B8EEC00A30EE800ACA4880ED040ACE4884
:10418000D0ED010ACE48B0F9000000EE100AB8EEFA
:10419000C00A30EE800AB1EE400AC24880ED050A3E
:1041A00070E00420C3490870C348D0ED020AC54836
:1041B000B0F9000000EE100AB8EEC00A30EE800A36
:1041C000B84880ED040ABC48D0ED020ABD48B0F9F9
:1041D000000002E057E031E00BE000EE100AB8EE1C
:1041E000C00A30EE800AB1EE400AAE4880ED050A02
:1041F00048E000BF0520AF490870AF48D0ED030A82
:10420000B148B0F9000000EE100AB8EEC00A30EE76
:10421000800AA44880ED040AA748D0ED030AAA4802
:10422000B0F9000000EE100AB8EEC00A30EE800AC5
:10423000B1EE400A9B4880ED050A23E002209D492B
:1042400008709D48D0ED000A9C48B0F9000000EECF
:10425000100AB8EEC00A30EE800A924880ED040AD7
:104260009548D0ED000A9548B0F9000000EE100A1C
:10427000B8EEC00A30EE800AB1EE400A894880EDFF
:10428000050A00BFCFE088480078012874D189482A
:104290000078062871D2DFE800F0AE9503274B7155
:1042A0008548D0ED000A8548B0F9000000EE100AFC
:1042B000B8EEC00A30EE800A7A4880ED040A7E48E3
:1042C000D0ED000A7D48B0F9000000EE100AB8EE0B
:1042D000C00A30EE800AB1EE400A724880ED050A4D
:1042E000012004F099FE91E07348D0ED010A744872
:1042F000B0F9000000EE100AB8EEC00A30EE800AF5
:10430000684880ED040A6C48D0ED010A6C48B0F9A9
:10431000000000EE100AB8EEC00A30EE800AB1EEDE
:10432000400A604880ED050A012004F075FE6DE04A
:104330006148D0ED020A6348B0F9000000EE100AAF
:10434000B8EEC00A30EE800A564880ED040A5A489A
:10435000D0ED020A5B48B0F9000000EE100AB8EE9A
:10436000C00A30EE800AB1EE400A4E4880ED050AE0
:10437000012004F051FE49E049E046E04E48D0ED0E
:10438000030A5148B0F9000000EE100AB8EEC00A66
:1043900030EE800A434880ED040A4748D0ED030A16
:1043A0004948B0F9000000EE100AB8EEC00A30EE3D
:1043B000800AB1EE400A3B4880ED050A012004F076
:1043C0002BFE23E04148B0F9000000EE100AB8EEE1
:1043D000C00A344880ED040A3C48B0F9000040426D
:1043E00000EE100AB8EEC00A2E4880ED050A012042
:1043F00004F012FE0AE09FED360A2A4880ED040A16
:104400009FED330A80ED050A00E000BF0BE09FED51
:10441000300A244880ED040A9FED2D0A80ED050A3C
:10442000002004F0F9FD1F4890ED040ADFED290A91
:10443000B4EEE00AF1EE10FA02DD9FED260A02E08A
:10444000184890ED040A174880ED040A90ED050A1B
:10445000DFED200AB4EEE00AF1EE10FA02DD9FED86
:104460001D0A02E00F4890ED050A0E4880ED050A8E
:1044700090ED001AF0EE410A90ED041AB0EE410AF8
:10448000154804F0C7FC074880ED020A90ED011AB8
:10449000F0EE410A90ED051AB0EE410A0F481FE018
:1044A000941B00208C89002098000020BB04002071
:1044B000BC040020C0050020C0890020D8050020D1
:1044C000DA050020DC050020DE050020E0050020E4
:1044D000000000000000FA4570880020A888002035
:1044E00004F098FC014880ED030A10BD8C8900207F
:1044F00010B542F2107243F698219FED0B1AF6EEBA
:10450000000AB3EE040A094804F060FC42F210729B
:1045100043F698219FED041AF6EE000AB3EE040A62
:10452000034804F053FC10BD000000007088002018
:10453000A88800200246002321B1012908D00229C1
:1045400012D10BE00C48C068D04000F001030DE030
:1045500009488068D04000F0010307E00648006980
:10456000D04000F0010301E0002300BF00BF0BB109
:10457000012070470020FCE7981300200148407894
:10458000704700009C8700200020044949780129D9
:1045900001D1012000E0002070470000B404002099
:1045A0000148B0F900007047801300200148B0F9BD
:1045B00002007047801300200148B0F904007047E2
:1045C000801300200148B0F90600704780130020D6
:1045D000104890ED030ADFED100A20EE200A0F4884
:1045E00080ED080A0B4890ED080A0C4880ED090A96
:1045F000084890ED040ADFED080A20EE200A08487A
:1046000080ED060A034890ED090A054880ED070A87
:1046100070470000581300208805B641241400207C
:10462000501400200148B0F90800704780130020A2
:1046300070B504460D460FF0DDFA20602188A2888F
:10464000891A88B2FFF74EFC28602068606070BD50
:104650000148B0F90C007047801300200148B0F900
:104660000E007047801300200948B0F86C0041F636
:10467000A421884201DD002005E00548B0F86C0067
:10468000A0F5D050A43800EE100AB8EEC00A70476A
:10469000141B00200948B0F86C0041F6A4218842A0
:1046A00001DD002005E00548B0F86C00A0F5D05011
:1046B000A43800EE100AB8EEC00A7047141B0020A0
:1046C0000948B0F86C0041F21E41884201DA00202E
:1046D00005E00548B0F86C00A0F5A0501E3800EECB
:1046E000100AB8EEC00A7047141B00200948B0F841
:1046F0006C0041F21E41884201DA002005E00548C5
:10470000B0F86C00A0F5A0501E3800EE100AB8EE0C
:10471000C00A7047141B00200148807A70470000CF
:10472000801300200148C07A7047000080130020E9
:10473000F0B504460D461E4694F820702068836844
:10474000A86800B900E000BF012F01D0022F7CD182
:1047500003F0806030B903F0006018B903F08050B6
:10476000002873D0C3F30161022905D9606A40F4BF
:10477000000060620120F0BD012088403060A86820
:1047800060B9B5F800C0E86840EA4C5C206800F504
:10479000C07000EB0110C0F800C00FE0D5E901C007
:1047A00040EACC00D5F80CC040EA0C00D4F800C0B8
:1047B0000CF5C07C0CEB011CCCF80000D5F810C047
:1047C000206800F5C07000EB0110C0F804C0287D1F
:1047D00001280ED1206800F5C07000EB0110406880
:1047E00040F4807C206800F5C07000EB0110C0F838
:1047F00004C0D079000692F806C040EA0C4092F856
:1048000005C040EA0C2C10794CEA000C206800F539
:10481000C07000EB0110C0F80CC0D078000692F810
:1048200002C040EA0C4092F801C040EA0C2092F825
:1048300000C040EA0C00D4F800C00CF5C07C0CEBC2
:10484000011CCCF80800206801E016E00FE000F53C
:10485000C07000EB0110006840F0010C206800F50A
:10486000C07000EB0110C0F800C0002083E7606A50
:1048700040F40010606201207DE7606A40F480200F
:104880006062012077E70000F0B504460A4621681F
:1048900094F82050012D01D0022D7ED1424901F51E
:1048A0000071086840F001000860086820F47C503E
:1048B00008600868566A40EA06200860107D00F02B
:1048C0001F06012000FA06F3C8699843C861A1F5E4
:1048D0000071D069C8B9D1F80C029843C1F80C0234
:1048E000908880B2968940EA064601F510705769B3
:1048F00040F83760108880B2168940EA064601F514
:104900001070576900EBC7004660D069012819D1C3
:10491000D1F80C021843C1F80C02908880B21688B6
:1049200040EA064601F51070576940F837609089F3
:1049300080B2168940EA064601F51070576900EB0F
:10494000C7004660906928B9D1F804029843C1F8BD
:10495000040204E0D1F804021843C1F8040210690B
:1049600028B9D1F814029843C1F8140204E0D1F830
:1049700014021843C1F81402106A012804D1D1F8B6
:104980001C021843C1F81C02D1F8000220F00100FB
:10499000C1F800020020F0BDFFE7606A40F480200B
:1049A00060620120F7E7000000640040704770B5C6
:1049B000044694F82050012D01D0022D7DD151B92B
:1049C0002068C06800F0030080B9606A40F40010FD
:1049D0006062012070BD2068006900F0030028B902
:1049E000606A40F4001060620120F3E7206800F57F
:1049F000D87000EB0110006800F00400906090682F
:104A000040B9206800F5D87000EB01100068400D37
:104A1000106007E0206800F5D87000EB0110006816
:104A2000C0085060206800F5D87000EB01100068E5
:104A300000F00200D060206800F5D87000EB011093
:104A4000406800F00F001061206800F5D87000EB9E
:104A50000110406800F47F40000A9061206800F572
:104A6000D87000EB01104068000C5061206800F520
:104A7000D87000EB011080681870206800F5D870BD
:104A800000EB0110806800F47F40000A5870206835
:104A900000F5D87000EB0110806800F47F00000C76
:104AA0009870206800F5D87000EB01108068000E47
:104AB000D870206800F5D87000E02FE000EB0110FE
:104AC000C0681871206800F5D87000EB0110C0684C
:104AD00000F47F40000A5871206800F5D87000EBA0
:104AE0000110C06800F47F00000C9871206800F588
:104AF000D87000EB0110C068000ED87131B9206881
:104B0000C06840F020002668F06005E02068006979
:104B100040F020002668306100205BE7606A40F4C6
:104B200080206062012055E72DE9F05F04460025F2
:104B3000206846692068D0F804902068876820685B
:104B4000D0F80CA02068D0F810B02068D0F81880F9
:104B500006F00100002855D007F00100C0B1012087
:104B60002168886007F0020018B1204600F031FB90
:104B70000EE007F0040010B145F4006508E007F00E
:104B8000080010B145F4805502E0204600F020FBFB
:104B900007F48070C8B14FF480702168886007F412
:104BA000007018B1204600F016FB0EE007F480609C
:104BB00010B145F4005508E007F4006010B145F469
:104BC000804502E0204600F005FB07F48030C8B1C4
:104BD0004FF480302168886007F4003018B1204617
:104BE00000F0FBFA0EE007F4802010B145F4004518
:104BF00008E007F4002010B145F4803502E02046BB
:104C000000F0EAFA06F0080038B10AF0100020B10E
:104C100045F4007510202168C86006F0040040B11A
:104C20000AF0080028B108202168C860204600F07A
:104C30000DFA06F0020038B12068C06800F00300E9
:104C400010B1204600F003FA06F0400038B10BF036
:104C5000100020B145F4806510202168086106F03D
:104C6000200040B10BF0080028B10820216808613D
:104C7000204600F07BFA06F0100038B12068006989
:104C800000F0030010B1204600F071FA06F4003085
:104C900040B109F0100028B110202168486020467A
:104CA00000F066FA06F4803040B109F0080028B13F
:104CB000082021684860204600F090FA06F4004081
:104CC00088B309F0040078B306F4807020B108F0CE
:104CD000010008B145F0010506F4007020B108F0AC
:104CE000020008B145F0020506F4806020B108F02A
:104CF000040008B145F0040506F40060A0B108F016
:104D0000700088B108F07000402817D006DC102829
:104D10000BD020280CD0302819D10CE0502810D00E
:104D2000602814D110E01DE019E045F008050FE0FF
:104D300045F010050CE045F0200509E045F0400580
:104D400006E045F0800503E045F4807500E000BF13
:104D500000BF2068806920F070002168886104200D
:104D6000216848602DB1606A284360622046FFF7E1
:104D70001DFEBDE8F09F70B504460CB9012070BD62
:104D800094F8200010B9204600F0B0F820680068C0
:104D900020F002002168086000F088FE05460DE062
:104DA00000F084FE401B0A2808D9606A40F40030F5
:104DB0006062052084F820000120E0E72068406858
:104DC00000F002000028EBD12068006840F00100EC
:104DD0002168086000F06AFE05460DE000F066FEFE
:104DE000401B0A2808D9606A40F400306062052040
:104DF00084F820000120C2E72068406800F001002C
:104E00000028EBD0207E012806D12068006840F001
:104E100080002168086005E02068006820F08000BC
:104E200021680860607E012806D12068006840F093
:104E300040002168086005E02068006820F040001C
:104E400021680860A07E012806D12068006840F033
:104E500020002168086005E02068006820F020003C
:104E600021680860E07E012806D12068006820F0F3
:104E700010002168086005E02068006840F010001C
:104E800021680860207F012806D12068006840F072
:104E900008002168086005E02068006820F008002C
:104EA00021680860607F012806D12068006840F012
:104EB00004002168086005E02068006820F0040014
:104EC00021680860D4E90201084321690843616947
:104ED00008436168491E08432168C8610020606278
:104EE000012084F82000002049E7000010B586B0BA
:104EF0000446142101A8FBF7D6FB4E4920688842DE
:104F000041D14D480068401C4B4908600846006884
:104F100001280FD100BF002000904848006840F0F1
:104F20000070464908600846006800F00070009074
:104F300000BF00BF00BF002000904048103800684C
:104F400040F008003D49103908600846006800F04C
:104F50000800009000BF00BF0320019002200290D3
:104F600000200390032004900920059001A93448F3
:104F700000F084FC00220521142001F0BFF9142068
:104F800001F0ACF954E02F492068884250D100BFAD
:104F9000002000902948006840F0806027490860A0
:104FA0000846006800F08060009000BF00BF224803
:104FB0000068401C204908600846006801280FD19D
:104FC00000BF002000901D48006840F000701B49A1
:104FD00008600846006800F00070009000BF00BF45
:104FE00000BF0020009015481038006840F0020013
:104FF0001249103908600846006800F0020000906D
:1050000000BF00BF602001900220029000200390AA
:10501000032004900920059001A90B4800F02EFC04
:1050200000220521402001F069F9402001F056F9E5
:1050300006B010BD00640040380000204038024037
:10504000000C0240006800400004024070477047B6
:1050500010B504461C4B1D4A00212046FFF7A7FC53
:105060001A480068A0F2052028B1032813D0B0F533
:105070009E7F27D11FE015480078401F1449087013
:105080001449134A127801EB42100BF04DFF032034
:10509000FEF70CFC16E00D480078401F0E49087022
:1050A0000C490D4A127801EB42100BF03DFF042031
:1050B000FEF7FCFB06E0044806F0FCF80920FEF7CA
:1050C000F5FB00BF00BF10BDF0020020EC1B00206C
:1050D000FC020020141B0020FD02002010B5044635
:1050E0001C4B1D4A00212046FFF761FC1A4800684E
:1050F000A0F2012020B1012812D0022827D11FE000
:1051000015480078401E154908701549134A127851
:1051100001EB42100BF092FE0520FEF7C7FB16E0F4
:105120000D480078401E0F4908700D490D4A12784D
:1051300001EB42100BF082FE0620FEF7B7FB06E003
:1051400009480BF0A9FE0720FEF7B0FB00BF00BF27
:1051500010BD0000F0020020EC1B0020FE02002029
:10516000941B0020FF020020081C0020704770479D
:10517000704770B5044694F82000012822D102201F
:1051800084F820002068006820F001002168086091
:1051900000F08CFC05460DE000F088FC401B0A285E
:1051A00008D9606A40F400306062052084F820006D
:1051B000012070BD2068406800F001000028EBD19C
:1051C0006062F6E7606A40F4002060620120F0E768
:1051D0007047704770477047704770477047014687
:1051E00091F83500022803D08020486501207047DF
:1051F000052081F835000868006820F001000A6881
:1052000010600020F3E70000F8B50446002000908D
:105210008C4800684FF41651B0FBF1F7A56D2E686D
:1052200094F85C1008208840304098B120680068ED
:1052300000F0040070B12068006820F004002168CC
:10524000086094F85C1008208840A860606D40F009
:105250000100606594F85C1001208840304068B11E
:105260002068406900F0800040B194F85C10012093
:105270008840A860606D40F00200606594F85C10A2
:1052800004208840304068B12068006800F00200C7
:1052900040B194F85C1004208840A860606D40F034
:1052A0000400606594F85C1010208840304078B3AA
:1052B0002068006800F0080050B394F85C101020DB
:1052C0008840A8602068006800F4802080B12068D1
:1052D000006800F4002028B9206CC8B12046216C79
:1052E000884715E0A06C98B12046A16C88470FE074
:1052F0002068006800F4807028B92068006820F0F9
:10530000080021680860206C10B12046216C884795
:1053100094F85C10202088403040002865D0206838
:10532000006800F0100000285FD094F85C10202086
:105330008840A86094F83500052828D120680068C6
:1053400020F01600216808602068406920F0800085
:1053500021684861206C08B9A06C28B120680068F9
:1053600020F008002168086094F85C103F20884015
:10537000A86000BF002084F8340000BF012084F83A
:105380003500206D10B12046216D8847F8BD20689A
:10539000006800F4802080B12068006800F40020DC
:1053A00028B9606C10B12046616C88471DE0E06B45
:1053B000D8B12046E16B884717E02068006800F408
:1053C000807068B92068006820F0100021680860CB
:1053D00000BF002084F8340000BF012084F83500AD
:1053E000E06B10B12046E16B8847606D38B3606DAB
:1053F00000F00100F0B1052084F835002068006855
:1054000020F001002168086000BF0098401C009057
:10541000B84200D905E02068006800F001000028CB
:10542000F3D100BF00BF002084F8340000BF01208A
:1054300084F83500E06C10B12046E16C884700BF6D
:10544000A4E70000E40300202DE9F0410446002514
:1054500000F02CFB074614B90120BDE8F081606A1A
:1054600000B100BF00BF002084F8340000BF02205C
:1054700084F835002068006820F001002168086089
:105480000AE000F013FBC01B052805D92020606549
:10549000032084F83500E0E72068006800F0010090
:1054A0000028EED12068056821480540D4E90101B3
:1054B0000843E16808432169084361690843A16919
:1054C0000843E1690843216A08430543606A0428E8
:1054D00003D1D4E90B010843054320680560206827
:1054E000456925F00705606A0543606A04280DD107
:1054F000A06A0543E06A48B12046FDF71FF828B1CD
:1055000040206065012084F83500A6E720684561E9
:105510002046FCF7F9FF064694F85C103F208840CF
:10552000B06000206065012084F83500002094E719
:105530003F8010F02DE9F04104460D4616461F4607
:105540004FF0000800BF94F83400012802D1022077
:10555000BDE8F081012084F8340000BF94F83500E4
:10556000012811D1022084F83500002060653B46F7
:10557000324629462046FDF736F82068006840F09C
:1055800001002168086006E000BF002084F83400B4
:1055900000BF4FF002084046DAE72DE9F047044625
:1055A0000D4616461F464FF00008D4F8589000BF2D
:1055B00094F83400012802D10220BDE8F0870120D0
:1055C00084F8340000BF94F83500012825D102206A
:1055D00084F83500002060653B4632462946204667
:1055E000FDF701F894F85C103F208840C9F80800E6
:1055F0002068006840F0160021680860206C28B11F
:105600002068006840F00800216808602068006891
:1056100040F001002168086006E000BF002084F827
:10562000340000BF4FF002084046C6E72DE9F041C4
:1056300004460E460127002500BF2548007E0128AC
:1056400002D10220BDE8F08101202149087600BF87
:105650004CF25030FEF714FC0746002F31D1401EAB
:105660003060206801280FD1207C6168FEF74CFB78
:105670004CF25030FEF704FC07461648006820F054
:105680000400144908601AE0A56812E0217C28464D
:10569000FEF7D0FA4CF25030FEF7F2FB07460D4809
:1056A000006820F0FA000B4908600FB1356005E092
:1056B0006D1CD4E902100844A842E7D800BFFEF7E9
:1056C000E7FA00BF00200249087600BF3846B9E774
:1056D00068200020103C02400348006840F0004071
:1056E0000149086000207047103C02402DE9F0415C
:1056F00006460F4614461D464FF0010800BF1F48DE
:10570000007E012802D10220BDE8F08101201B4962
:10571000087600BF4CF25030FEF7B2FB8046B8F17D
:10572000000F23D126B9E1B23846FEF705FB12E09F
:10573000012E04D1A1B23846FEF72EFB0BE0022E5B
:1057400004D121463846FEF73BFB04E022462B46B7
:105750003846FEF703FB4CF25030FEF791FB8046D3
:105760000748006820F001000549086000BF0020DC
:105770000249087600BF4046C6E7000068200020C6
:10578000103C024000200949096801F0004159B16C
:105790000749064A0C3A1160064911600349096835
:1057A00001F0004101B1012070470000103C0240AF
:1057B00023016745AB89EFCD10B50446102C11D1FC
:1057C0001F48007840F001001D4908701D4800780E
:1057D00040F001001B4908701B48007870B30BF0C3
:1057E0001FFD2BE0202C0BD11848007840F0010061
:1057F000164908701448007800B30BF011FD1DE045
:10580000082C06D11248007840F0010010490870B9
:1058100014E0012C12D10EF0DDF901280ED00D4953
:105820000D4800680DF046FA0A48006830B12007BC
:105830000A490860BFF34F8FBFF36F8F10BD0000A0
:105840002603002027030020290300202503002031
:10585000280300209C0300200003002004ED00E04A
:1058600010B5044604480068204020B10248046096
:105870002046FFF7A1FF10BD143C0140F8B50246D9
:105880000B460025002400200021DCE0012606FA5A
:1058900001F51E6806EA0504AC4273D15E68012E6C
:1058A00008D05E68022E05D05E68112E02D05E68B8
:1058B000122E13D190684F000326BE40B0434F0014
:1058C000DE68BE4030439060506801268E40B04391
:1058D0001E79C6F300168E4030435060D0684F00EA
:1058E0000326BE40B0434F009E68BE403043D060A8
:1058F0005E68022E02D05E68122E13D1CF0802F12C
:10590000200656F827004E07F70E0F26BE40B0437C
:105910004F07FF0E1E69BE403043CF0802F120063C
:1059200046F8270010684F000326BE40B0431E799A
:1059300006F003064F00BE40304310605E6806F07C
:105940008056B6F1805F7DD100BF00260096404EA4
:10595000366846F480463E4F3E603E46366806F462
:105960008046009600BF00BF3A4E8F0856F82700C9
:105970008E07370F0F26BE40B043374EB24202D1DA
:10598000002624E05EE0354EB24201D101261EE041
:10599000334EB24201D1022619E0324EB24201D159
:1059A000032614E0304EB24201D104260FE02F4E00
:1059B000B24201D105260AE02D4EB24201D106269F
:1059C00005E02C4EB24201D1072600E008268F07E1
:1059D0003F0FBE4030431F4E8F0846F82700264E2B
:1059E0003068A0435E6806F48036B6F5803F00D18B
:1059F0002043214E3060361D3068A0435E6806F4B7
:105A00000036B6F5003F00D120431B4E361D3060F6
:105A1000361D3068A0435E6806F48016B6F5801F18
:105A200000D12043144E08363060361D3068A04344
:105A30005E6806F40016B6F5001F00D120430E4E36
:105A40000C363060491C1029FFF420AFF8BD00006F
:105A5000443802400838014000000240000402407F
:105A600000080240000C02400010024000140240F6
:105A700000180240001C0240003C0140024613692D
:105A80000B400BB1012000E00020704742690A4042
:105A90008A4202D10A04826100E0816170470AB142
:105AA000816101E00B0483617047000001480068D8
:105AB00070470000E803002070B504460CB90120CF
:105AC00070BD94F83D0028B9002084F83C002046C1
:105AD00000F006FB242084F83D002068006820F0D8
