:020000040800F2
:10000000A84F00200D030008B3290008BB260008F4
:10001000B129000839080008CD3A000800000000A6
:100020000000000000000000000000004D02000879
:10003000A10D000800000000A902000859370008BF
:1000400027030008270300082703000827030008E8
:1000500027030008270300082703000827030008D8
:1000600027030008270300082703000827030008C8
:1000700027030008270300082703000827030008B8
:1000800027030008270300082703000827030008A8
:100090003D0800082703000827030008270300087D
:1000A0002703000829380008270300082703000851
:1000B0002703000827030008270300082703000878
:1000C0002703000827030008270300082703000868
:1000D00027030008B53A0008270300082703000893
:1000E0002703000827030008270300082703000848
:1000F0002703000827030008270300082703000838
:100100002703000827030008270300082703000827
:100110002703000827030008270300082703000817
:1001200027030008270300085D0C000827030008C8
:1001300027030008270300082703000827030008F7
:1001400055080008270300082703000827030008B4
:1001500027030008270300082703000827030008D7
:1001600027030008270300082703000827030008C7
:1001700027030008270300082703000800000000E9
:1001800027030008270300082703000827030008A7
:100190002703000827030008270300082703000897
:1001A00000000000000000002703000800F002F833
:1001B00000F03CF80AA090E8000C82448344AAF1C5
:1001C0000107DA4501D100F031F8AFF2090EBAE8C3
:1001D0000F0013F0010F18BFFB1A43F0010318477B
:1001E000DC7E0000FC7E0000103A24BF78C878C195
:1001F000FAD8520724BF30C830C144BF04680C602D
:10020000704700000023002400250026103A28BF74
:1002100078C1FBD8520728BF30C148BF0B60704778
:100220001FB507F0AFF81FBD10B510BD00F012FAF2
:100230001146FFF7F5FF04F07BFE00F030FA03B43F
:10024000FFF7F2FF03BC00F095FA00002C4B196891
:100250000868B0E8F04F80F30988BFF36F8F4FF064
:10026000000080F311887047000000000848006813
:10027000006880F308884FF0000080F3148862B6AD
:1002800061B6BFF34F8FBFF36F8F00DF00BF00BFBA
:1002900008ED00E0DFF80C00016841F47001016036
:1002A000704700BF88ED00E0EFF30980BFF36F8F68
:1002B000134B1A681EF0100F08BF20ED108A20E9BA
:1002C000F04F106009B44FF0500080F31188BFF375
:1002D0004F8FBFF36F8F05F069FA4FF0000080F386
:1002E000118809BC19680868B0E8F04F1EF0100FBB
:1002F00008BFB0EC108A80F30988BFF36F8F704796
:100300001C000020EFF3058070470000094880477B
:1003100009480047FEE7FEE7FEE7FEE7FEE7FEE7E7
:10032000FEE7FEE7FEE7FEE704480549054A064BFF
:100330007047000019380008AD010008A8490020E6
:10034000A84F0020A84B0020A84B00209FED1A1AB0
:10035000F5EE000A40EE010ABDEEE00AF5EEC00A35
:1003600010EE100AF1EE10FA38BF401E00EE100A2F
:100370001349F7EE001AB8EEC00A30EEC00ADFEDFE
:100380000F0A20EE200AFCEEC00A10EE900AC0F31D
:10039000080000EE900A01EB8000F8EE600A90ED94
:1003A000011A70EE600A90ED000A71EEE01A21EE7B
:1003B000800A00EE810A704783F9223E0000004463
:1003C00074770008B5EEC00AF1EE10FA07D2DFED3F
:1003D0001E0AB4EEE00AF1EE10FAA8BF7047DFED96
:1003E0001B0AB5EEC00A60EE200ABDEEE01A11EE5F
:1003F000100AF1EE10FA38BF401E00EE100A15493F
:10040000F7EE001AB8EEC00A30EEC00ADFED100AAF
:1004100060EE200ABCEEE00A10EE100AC0F30800FD
:1004200000EE100A01EB8000B8EE400A90ED011AD0
:1004300070EEC00A90ED000A71EEE01A21EE800A1B
:1004400000EE810A70470000CD024CB483F9223ED1
:10045000000000447477000853EA020C00F0698041
:100460002DE9F04B4FF00006002B1FBFB3FA83F5C8
:1004700003FA05F424FA05F65E4012BF1643B2FAF9
:1004800082F502FA05F4C5F120051EBF22FA05FC2B
:1004900044EA0C04203556EA044C4FEA144418BFD1
:1004A000641C4FF000084FF00009904271EB030C00
:1004B00039D3002919BFB1FA81F701FA07F6B0FA6A
:1004C00080F700FA07F6C7F120071EBF20FA07FCE5
:1004D00046EA0C062037B6FBF4FCA7EB0507103FF5
:1004E00007F01F0BCBF120060CFA0BFB2CFA06F6DB
:1004F00044BFB3460026202FA4BF5E464FF0000B3A
:100500005BEA060C08BF4FF0010B19EB0B09ABFBC4
:10051000027C48EB0608C01B06FB02CC0BFB03CC9D
:1005200071EB0C01C1E70B46024641464846BDE867
:10053000F08B13B54FF000004FF00001AFF30080D7
:10054000BDE81C40704710B5203AC0F00B80B1E800
:100550001850203AA0E81850B1E81850A0E81850F8
:10056000BFF4F5AF5FEA027C24BFB1E81850A0E801
:10057000185044BF18C918C0BDE810405FEA827C1B
:1005800024BF51F8043B40F8043B08BF7047D20732
:1005900028BF31F8023B48BF11F8012B28BF20F8D3
:1005A000023B48BF00F8012B70474FF0000200B536
:1005B000134694469646203922BFA0E80C50A0E886
:1005C0000C50B1F12001BFF4F7AF090728BFA0E834
:1005D0000C5048BF0CC05DF804EB890028BF40F800
:1005E000042B08BF704748BF20F8022B11F0804F42
:1005F00018BF00F8012B704770477047704710B55F
:1006000000F008F8006810BD10B5044600F002F8CC
:10061000046010BD00487047444900201FB584B0F5
:1006200000200A9C06AB04AA02A90094AFF3008044
:1006300018B1DDE9020108B010BD0348204000F008
:1006400037F800200146F6E70000207C004870479C
:10065000444900207546FFF7F9FFAE46050069469C
:10066000534620F00700854618B020B5FFF75CFE22
:10067000BDE820404FF000064FF000074FF00008A3
:100680004FF0000B21F00701AC46ACE8C009ACE824
:10069000C009ACE8C009ACE8C0098D46704710B588
:1006A0000446AFF300802046BDE81040FFF7C7BD09
:1006B00010B500F009F8BDE81040AFF30080002845
:1006C00001D000F057B8704710B5022803D041019F
:1006D00003D50DA112E0002010BD010101D50FA12D
:1006E0000CE0C10001D511A108E0810001D512A1E3
:1006F00004E0400001D513A100E0002115A000F0A6
:100700003FF8012010BD0000496E76616C696420DD
:100710004F7065726174696F6E000000446976699C
:100720006465204279205A65726F00004F766572C9
:10073000666C6F7700000000556E646572666C6FC2
:1007400077000000496E65786163742052657375A7
:100750006C7400005349474650453A204172697411
:10076000686D6574696320657863657074696F6E20
:100770003A20000001491820ABBEFEE72600020027
:1007800070B505460C460A2000E06D1C00F011F81B
:1007900035B128780028F8D102E0641C00F009F88F
:1007A00014B120780028F8D1BDE870400A20AFF3DA
:1007B000008008B569468DF800000320ABBE08BD77
:1007C0007047000010B5114C6178491CC9B26170C6
:1007D000642916D290ED000A0D4A10EE101ADFEDD2
:1007E0000D0A914202DD30EE600A06E010EE101AAA
:1007F000094A914205D930EE200A80ED000AFFF740
:10080000E1FF6078401E607010BD0000A80000206D
:10081000000034430000B443000034C30168416069
:1008200004494A790B791204C97842EA03220A433F
:1008300002607047A0000020FEE7000010B50448E9
:1008400000F040FEBDE81040014800F030BC000060
:100850005C03002010B5044800F088FEBDE810409D
:10086000014800F024BC000084030020F0B40F4CC9
:100870000E0A049D26706170110AA170E270190AB7
:1008800021716371290AA1710949E57140F2FF12D2
:100890000A604A6008220A6100228A60CA600A75FA
:1008A000A4F10C032246F0BC00F098BA9800002096
:1008B00060430020F0B40F4C0E0A049D2670617056
:1008C000110AA170E270190A21716371290AA171DC
:1008D0000949E5714FF400720A604A6008220A6112
:1008E00000228A60CA600A75A4F10C032246F0BC9B
:1008F00000F074BA980000206043002010B5044650
:10090000491EC8B200EB400101EB00100D49002266
:1009100001EB800101230A614A614A62C1E90623B1
:100920000A604A608A600B622046CA6000F0C4FA1E
:10093000204600F04BFE2068416941F00201416110
:1009400010BD00008841002070B50A88C2F30A0279
:10095000A2F5806202804B788C78DB0843EA44136E
:10096000C3F30A05A5F5806545808B78CC789B0993
:1009700043EA84030C7943EA8423C3F30A04A4F50D
:10098000806484800B794E795B0843EAC613C3F315
:100990000A03A3F58063C3804E79B60986724E7947
:1009A000C6F30116C672CE8886810E89C6814E892D
:1009B00006820E7B86744E7BC674CE898682098A37
:1009C000C1F30A06068100211436282E00D80181C1
:1009D00006891432A6F580660681282A00D801808F
:1009E0001435282D00D841801434282C00D881805B
:1009F0001433282B00D8C18001F09CF8084C2060EB
:100A00006168401AB0F5FA7F05D98021054801F0E8
:100A100089F820686060BDE8704001F0D1BE000038
:100A2000DC000020001002402DE9F05FDFF8E880D4
:100A300000242DED028B44F62066DFED388A9FED11
:100A4000388A4FF47A5508F1F00908F5347A41F202
:100A5000883B00BFC4EB041708EB870032462946E9
:100A6000B0EE481AF0EE480AB0EE680A01F0BAFF9C
:100A700009EB870032462946B0EE481AF0EE480AE4
:100A8000B3EE040A01F0AEFFC4EBC4010AEBC100EF
:100A90005A462946B0EE481AF6EE000AB2EE040AAB
:100AA00001F024FE641C042CD4DB1B48324629468A
:100AB000B0EE481AF0EE480A9FED1A0AB43001F081
:100AC00091FF32462946B0EE481AF0EE480AB2EEDF
:100AD0000E0A154801F086FF00200F4C0246503CDC
:100AE00004F5806304EB800191ED000AC0EBC001C6
:100AF00003EB8101401C81ED030A81ED000A0A61CC
:100B00004A618A61C0B281ED018A0428EAD3BDEC52
:100B1000028BBDE8F09F0000E4430020000016C3F4
:100B2000000000000000C8C2884500202DE9F04107
:100B3000424B414A424C00202DED028B03F1100143
:100B400002EB4015B5F9005000EE105A03EB80059A
:100B5000B8EEC00A85ED000A04EB4015B5F9005067
:100B600000EE105A01EB8005401CB8EEC00A0428C4
:100B700085ED000AE4DB334930480A6A2030A2F5EB
:100B8000C83202600F6BA7F5C83747600E68A6F53C
:100B9000C83686600D69A5F5C835C560104605F0F4
:100BA000DDFC9FED298B53EC182B05F07BFA04F04C
:100BB000D7FF224C103C2060384605F0CFFC53ECA8
:100BC000182B05F06FFA04F0CBFF6060304605F09B
:100BD000C5FC53EC182B05F065FA04F0C1FFA060CA
:100BE000284605F0BBFC53EC182B05F05BFA04F02B
:100BF000B7FFE0601648C088062811D01548FBEE04
:100C0000040A90ED020AD0ED001A20EE201AD0ED71
:100C1000010AB3EE040A60EE800A21EE800A05E0C4
:100C20009FED0D0AB0EE401AF0EE400ABDEC028BCB
:100C3000BDE8F04101F048BF6042002014480020A8
:100C4000E042002020420020012FC1166CC1464026
:100C5000044900201849002000000000014800F06D
:100C6000E9BC0000F003002001681823CAB2103A62
:100C7000B2FBF3F2054B6FF30901032A9B5CC365DA
:100C800000D9091D816508467047000054770008A7
:100C900010B5014600208B698A6A4FF0C07453B1C9
:100CA000B3F5005F15D072B1012A0CD0022A0AD028
:100CB000032A09D104E01AB1012A06D0022A03D17D
:100CC000C96AC90100D5012010BDC96AA142FAD084
:100CD00010BD002AF7D0012AF2D0022AF3D0032A4D
:100CE000F3D010BD30B50468256825F48025256053
:100CF000046863608368402B036803D099600068D0
:100D0000C26030BD9A600068C16030BD1648B0F95D
:100D10000610143019B101290AD0062907D19FED18
:100D2000130A80ED020A80ED010A80ED000A704787
:100D30000D495C39B1F9042000EE102AB8EEC00A62
:100D400080ED000AB1F9062000EE102AB8EEC00AC4
:100D500080ED010AB1F9001000EE101AB8EEC00AD9
:100D600080ED020A704700000449002000000000E6
:100D70000A4800F15C01827AC07A012A08D0022A6E
:100D800005D1022807D0032801D10620C88070476A
:100D90000128FCD1FAE70020F8E70000A84800206D
:100DA000704700000649B0F5804F096802D98843B2
:100DB00002D17047014201D10120704700207047E5
:100DC000E4000020034931F81020521C21F81020C3
:100DD000704700002449002072B6FEE7F0B590F895
:100DE00020500468A468012D05D0022D03D0416A6B
:100DF00041F480215DE014F0406F01D1E50055D54C
:100E0000C4F30164022C03D9416A41F4000150E0AB
:100E10000125A5401D608D684FF4C0739DB1CE685B
:100E200035434E6845EAC605066803EB0417F551DD
:100E30004FF4C275076805EB04150E697E51097DF4
:100E4000012905D009E00E88CD6845EA4655EBE753
:100E500001684E5946F480764E511179D57956790C
:100E600041EA056195792D0445EA062529434FF4A9
:100E7000C676056806EB0416A9511178D57841EAC3
:100E80000561957852782D0445EA022211434FF40A
:100E9000C475026805EB04155151006803EB041199
:100EA000425842F0010242500020F0BD416A41F434
:100EB000001141620120F0BD10B590F82020012AF8
:100EC00007D0022A05D0416A41F480214162012005
:100ED00010BD3B48D0F8002242F00102C0F80022C9
:100EE000D0F8002222F47C52C0F80022D0F8002270
:100EF0004B6A42EA0322C0F800220A7D02F01F0377
:100F000001229A40D0F81C329343C0F81C32CB69BE
:100F1000B3B9D0F80C329343C0F80C328C894B68CB
:100F200064F31F434C6900EBC404C4F840320C89DD
:100F30000B6864F31F434C6900EBC404C4F84432EB
:100F4000CB69012B16D1D0F80C321343C0F80C3208
:100F50000C884B6864F31F434C6900EBC404C4F86D
:100F600040320C89CB6864F31F434C6900EBC40426
:100F7000C4F844328B69002BD0F804320ED01343EE
:100F8000C0F804320B69002BD0F8143208D0134398
:100F9000C0F81432096A012904D008E09343EFE74E
:100FA0009343F5E7D0F81C121143C0F81C12D0F897
:100FB000001221F00101C0F80012002010BD000055
:100FC00000640040704730B590F82040012C05D0F7
:100FD000022C03D0416A41F480215DE004680029BD
:100FE00055D02469A40754D04FF4D874056804EB95
:100FF00001142D5915F00405956005682D594ED042
:10100000ED08556005682C5904F00204D4604FF4D3
:10101000DA74056804EB01142D5905F00F0515610C
:1010200005682D59C5F30725956105682C59240CD1
:1010300054614FF4DC72046802EB0112A4581C7076
:101040000468A458240A5C700468A458240C9C709A
:101050000468A258120EDA704FF4DE72046802EBD4
:101060000112A4581C710468A458240A5C71046815
:10107000A458240C9C710468A258120EDA710068FE
:1010800081B1016941F020010161002030BDE468B7
:10109000A8E7416A41F400114162012030BD6D0DA5
:1010A0001560AFE7C16841F02001C160EDE72DE9AF
:1010B000F05F0546006800244669D0F80490876810
:1010C000D0F80CB0D0F810A0D0F81880F10748D0B4
:1010D000F90714D001218160B80703D5284600F034
:1010E000A2FA0CE0780702D54FF4006407E0380755
:1010F00002D54FF4805402E0284600F093FAF80538
:1011000016D529684FF480708860B80503D5284645
:1011100000F08BFA0CE0780502D544F4005407E0A7
:10112000380502D544F4804402E0284600F07CFAF9
:10113000F80316D529684FF480308860B80303D5CA
:10114000284600F074FA0CE0780302D544F4004419
:1011500007E0380302D544F4803402E0284600F06A
:1011600065FA300707D55FEACB6004D529681020FF
:1011700044F40074C86070074FF0080707D55FEAB1
:101180000B7004D52868C760284600F099F9B007AD
:1011900006D52868C068800702D0284600F091F97B
:1011A000700607D55FEACA6004D52968102044F4A8
:1011B00080640861B00607D55FEA0A7004D5286824
:1011C0000761284600F0FEF9F00606D52868006998
:1011D000800702D0284600F0F6F9B00308D55FEA90
:1011E000C96005D5296810204860284600F0ECF950
:1011F000F00307D55FEA097004D5286847602846E0
:1012000000F016FA300446D55FEA497040D5F00583
:1012100004D55FEAC87001D044F00104B00504D5DC
:101220005FEA887001D544F00204700504D55FEAD6
:10123000487001D544F00404300529D518F0700F2A
:1012400026D008F07000402815D006DC102809D000
:1012500020280AD0302816D10AE050280ED0602865
:1012600011D10EE044F008040DE044F010040AE04F
:1012700044F0200407E044F0400404E044F080041B
:1012800001E044F480742868816921F07001816173
:10129000296804204860002C05D0686A20436862F1
:1012A0002846FFF78FFEBDE8F09F70B5040003D01D
:1012B00094F8200010B104E0012070BD204600F039
:1012C00081F82068016841F00101016000F032FC02
:1012D0000546052604E000F02DFC401B0A2811D825
:1012E00020684068C007F6D02068016821F002013C
:1012F000016000F01FFC05460BE000F01BFC401BEA
:101300000A2806D9606A40F40030606284F82060E0
:10131000D2E7206840688007EFD4207E012820684B
:1013200001683DD021F080010160607E01282068C5
:10133000016838D021F040010160A07E01282068BA
:10134000016833D021F020010160E07E012820688F
:1013500001682ED041F010010160207F0128206833
:10136000016829D021F008010160607F0128206810
:10137000016824D021F004010160D4E9020108438E
:10138000D4E90412114308436168491E08432168E7
:10139000C86100206062012084F82000002070BD38
:1013A00041F08001C0E741F04001C5E741F0200174
:1013B000CAE721F01001CFE741F00801D4E741F07E
:1013C0000401D9E7F0B587B0044614216846FFF759
:1013D000ECF8364B3648DFF8D0E01968D4F800C096
:1013E000334A03250226092710300024491CF445FE
:1013F00022D11960012907D1016841F00071016013
:10140000006800F000700590106840F0080010605F
:101410001068CDE9005600F00800CDE90470694677
:101420002448CDE9024500F063FA0022052114208A
:1014300000F018FC142033E0DFF87CE0F44531D1F3
:10144000D0F800C04CF0806CC0F800C0D0F800C0EC
:1014500001290CF0806CCDF814C0196007D1016827
:1014600041F000710160006800F0007005901068A4
:1014700040F002001060106802AB00F0020005901E
:101480004FF44050CDE9000683E8B00069460B48B0
:1014900000F02EFA00220621402000F0E3FB40205D
:1014A00000F0D2FB07B0F0BD00640040080000204F
:1014B00030380240000C0240006800400004024046
:1014C0007047704710B5264B264A0021FFF77BFD79
:1014D000244801682248A1F201211C3808293ED283
:1014E000DFE801F0040C11161B222A32C168491CE6
:1014F000C160002101701B48983811E00121417042
:101500001848983813E0022181701648983816E080
:101510000321C1701348983819E004210171124861
:1015200003F0D4FC032016E0052141710E48203061
:1015300003F0CCFC04200EE0062181710A48403003
:1015400003F0C4FC052006E00721C17106486030A5
:1015500003F0BCFC0620BDE81040FFF733BC10BD13
:10156000A0000020784300206042002010B5124BFC
:10157000124A0021FFF727FD1048006801280AD011
:10158000022812D0032813D004280DD10C48BDE83E
:101590001040FFF743B90A483038FFF73FF90648D3
:1015A0001C380169491C016110BD05482038EEE76F
:1015B00003481038EBE70000A0000020784300202B
:1015C00050420020704770477047000070B50446D5
:1015D00090F82000012804D0606A40F40020606286
:1015E00018E0022084F820002068016821F0010141
:1015F000016000F09FFA05460EE000BF00F09AFA85
:10160000401B0A2808D9606A40F400306062052057
:1016100084F82000012070BD20684068C007EDD12B
:10162000606270BD70477047704770477047704781
:10163000704700002DE9F84304464FF00009CDF84B
:10164000009063484FF41651A56D0068B0FBF1F7A8
:101650002E6894F85C10082000FA01F131420FD096
:1016600021680A6852070BD50A6822F004020A6052
:1016700094F85C108840A860606D40F001006065DF
:1016800094F85C104FF0010808FA01F0304208D0DD
:1016900021684969090604D5A860606D40F0020020
:1016A000606594F85C1004208840304208D02168BE
:1016B0000968890704D5A860606D40F00400606582
:1016C00094F85C1010208840304218D021680968D6
:1016D000090714D5A86020680168490304D500688B
:1016E000000308D5A16C07E00168C90503D40168AF
:1016F00021F008010160216C09B12046884794F867
:101700005C1020208840304231D021680968C90629
:101710002DD5A86094F8350005282068016806D00A
:10172000490347D5006800031DD4616C1CE021F01B
:10173000160101602068416921F080014161206C3F
:1017400008B9A06C20B12068016821F0080101608F
:1017500094F85C103F208840A86084F8358084F8B5
:101760003490216D1FE0E16B09B120468847606D20
:1017700000282BD0606DC00714D0052084F83500F8
:101780002068016821F0010101600098401C009070
:10179000B84203D820680068C007F6D184F83580C5
:1017A00084F83490E16C002910D001B02046BDE8E7
:1017B000F04308470168C905D5D4016821F010013C
:1017C000016084F8358084F83490CCE7BDE8F88374
:1017D000180000202DE9F041044600F0ABF9064660
:1017E0005CB1022084F83500002584F8345020686C
:1017F000016821F0010101600DE00120BDE8F081E8
:1018000000F098F9801B052805D920206065032089
:1018100084F83500F2E720680068C007F0D122683C
:10182000116820480140D4E901031843D4E9033684
:101830003343184363691843A3691843E3691843A2
:10184000236A18430843616A042903D1D4E90B13BE
:1018500019430843106020684069666A20F0070158
:1018600030460E43012704280CD1A06A0643E06AE3
:1018700040B12046FFF70CFA20B14020606584F8A3
:101880003570BAE7206846612046FFF7EDF994F815
:101890005C203F2191408160656584F835700020AF
:1018A000ACE700003F8010F070B5044690F83400BB
:1018B000002501280CD0012084F8340094F835600C
:1018C0000020012E06D084F834000225284670BD81
:1018D000022070BD022684F8356060652046FFF75F
:1018E00001FA2068016841F001010160EEE70000A3
:1018F0002DE9F84FDFF8F8A10022012403254FF06D
:101900000F090AF1040BAAF1040E00BF0B6804FAD8
:1019100002F63340B34270D10F7907F00307012F6D
:1019200001D0022F16D187684FEA420805FA08FC59
:1019300027EA0C07D1F80CC00CFA08FC4CEA070C9B
:10194000C0F808C04768B7430E79C6F30016964042
:101950003E4346600E79F643B6070AD0C7684FEAA1
:10196000420C05FA0CF6B7438E6806FA0CF63E43B5
:10197000C6600E7906F00306022E10D1D60800EBE1
:101980008608D8F8206057074FEAD76C09FA0CF799
:10199000BE430F6907FA0CF73743C8F82070066892
:1019A0004FEA420C05FA0CF7BE430F7907F0030724
:1019B00007FA0CF7374307604E6816F4403F1CD017
:1019C0004C4E376847F480473760366822F003078B
:1019D00006F480460096484E07EB060CDCF80868D3
:1019E00097073F0F09FA07F826EA0806DFF80C8187
:1019F000404503D14FF0000841E072E0DFF800817C
:101A0000404502D14FF0010839E0DFF8F880404549
:101A100002D14FF0020832E0DFF8EC80404502D1FD
:101A20004FF003082BE0DFF8E480404502D14FF08F
:101A3000040824E0DFF8D880404502D14FF00508C3
:101A40001DE0DFF8D080404502D14FF0060816E0D7
:101A5000DFF8C480404502D14FF007080FE0DFF8FF
:101A6000BC80404502D14FF0080808E0DFF8B080A4
:101A7000404502D14FF0090801E04FF00A0808FA8A
:101A800007F848EA0608CCF80888DAF800605746F4
:101A9000D1F804C09E435FEACC2C00D51E433E60C3
:101AA000DBF800605F46D1F804C09E435FEA8C2CEF
:101AB00000D51E433E60DEF800607746D1F804C0D2
:101AC0009E435FEA8C3C00D51E433E60084F083FB2
:101AD0003E68D1F804C09E435FEACC3C00D51E436B
:101AE0003E60521C102AFFF411AFBDE8F88F0000D1
:101AF000083C0140443802400030014000000240F0
:101B00000004024000080240000C024000100240A5
:101B10000014024000180240001C02400020024055
:101B200000240240426921EA02030A4043EA0241DA
:101B30008161704701488068704700000C000020F8
:101B40000248816802781144816070470C000020CF
:101B50000B4810B5016841F400710160016841F45F
:101B600080610160016841F480710160032000F030
:101B700099F80F2000F006F800F04AF8002010BD98
:101B8000003C024030B505461C4887B0002401687F
:101B900041F001010160006806A900F00100009019
:101BA00001A800F02BF900F059F915494000B0FBED
:101BB000F1F11548134A491E026040F2E732C0E9CC
:101BC0000324C0E90114846100F042FB040012D137
:101BD0000D4800F06BFB04000DD1192000F034F823
:101BE000102D07D200222946192000F03BF80748A3
:101BF000056000E0012407B0204630BD44380240B3
:101C000040420F000000014050040020100000205E
:101C10000C4882B0016841F480410160006800F422
:101C2000804000900748001F016841F0805101602A
:101C30000068002200F0805000900F21901E02B03A
:101C400000F010B844380240002809DB00F01F0201
:101C5000012191404009800000F1E020C0F800110E
:101C600070470000F0B40E4B1B680C46C3F3022310
:101C7000C3F10705042D00D90425191D072901D238
:101C8000002300E0DB1E012606FA05F1491E214073
:101C900099409E40761E16403143F0BC01F02FBFA4
:101CA0000CED00E0064900F0070208684FF6FF035C
:101CB000184040EA0220034A1043086070470000C1
:101CC0000CED00E00000FA052DE9F0470E46050096
:101CD00065D0DFF81481D8F80000F7B200F00F00EB
:101CE000B04207D288F80070D8F8000000F00F006A
:101CF000B04254D128683D4C810712D5400703D526
:101D0000206840F4E05020602878000703D5206860
:101D100040F4604020602068A96820F0F00008438B
:101D200020602878C0072DD030496868083901281C
:101D300012D0022813D0032811D00968890700297E
:101D40002DDA216821F0030101432160FFF7F2FE43
:101D5000814641F2883A0EE009688903EFE7096895
:101D60008901ECE7FFF7E6FEA0EB0901514502D936
:101D70000320BDE8F0872068696800F00C00B0EB34
:101D8000810FEFD1D8F80010404601F00F01B142A9
:101D900007D90770006800F00F00B04201D00120A1
:101DA000E7E72878400705D52068E96820F4E05087
:101DB000084320602878000706D52068296920F4A8
:101DC000604040EAC100206000F058F82168084AED
:101DD000C1F30311515CC840064908600648006819
:101DE000FFF7D0FE0020C4E7003C02400838024064
:101DF0005C77000818000020100000200F2202600D
:101E00000C4A136803F003034360136803F0F00304
:101E10008360136803F4E053C36012684FF4E05327
:101E200003EAD20202610448006800F00F00086073
:101E30007047000008380240003C02400448054951
:101E400000680968044AC1F38221515CC8407047A8
:101E500018000020083802406C7700080448054943
:101E600000680968044AC1F34231515CC8407047B8
:101E700018000020083802406C770008154810B59B
:101E8000006810F00C02144813D01449042A0FD033
:101E9000082A0ED10F4C241F2268236802F03F024B
:101EA0005B0207D52068C0F38810A0FB010106E0A3
:101EB000084610BD2168C1F38811A1FB0001002371
:101EC000FEF7CAFA2168C1F30141491C4900B0FB81
:101ED000F1F010BD083802400024F400001BB700E8
:101EE0002DE9F84F04006ED02078DFF84C93C0073E
:101EF000A9F104054AD009F104000168C1F3810188
:101F0000012908D00068C0F3810002280AD1D9F85D
:101F10000000400206D52868800337D56068002895
:101F2000E1D033E06068B0F5803F10D0B0F5A02F6D
:101F3000286810D020F480302860286820F48020A1
:101F400028606068A8B1FFF7F5FD06460DE0286837
:101F500040F48030F4E740F480202860F7E700BFC9
:101F6000FFF7E8FD801B642873D828688003F7D545
:101F70000CE0FFF7DFFD064605E000BFFFF7DAFDE6
:101F8000801B6428F0D828688003F7D42078DFF815
:101F9000AC8280074FF0000A3ED5A748001D0168BB
:101FA00011F00C0F08D00068C0F3810002280BD19B
:101FB000D9F80000400207D42868800716D5E068E9
:101FC000012800D112E033E1E068B8B10120C8F87F
:101FD0000000FFF7AFFD064605E000BFFFF7AAFDD2
:101FE000801B0228C0D828688007F7D52868216997
:101FF00020F0F80040EAC10028600DE0C8F800A019
:10200000FFF798FD064604E0FFF794FD801B0228C9
:102010001FD828688007F7D42078000722D5864F7C
:1020200087486169703771B101210160FFF782FD56
:10203000064604E0FFF77EFD801B022809D83868B9
:102040008007F7D50EE0C0F800A0FFF773FD064645
:1020500005E082E0FFF76EFD801B02287DD838681E
:102060008007F7D42078400768D5DFF8CCB1002787
:102070000BF13C0BDBF80000C0000BD4DBF80010C8
:1020800041F08051CBF80010DBF80000012700F090
:10209000805000906B4E3068C00510D4306840F41A
:1020A00080703060FFF746FD009005E0FFF742FDCD
:1020B0000099401A022850D83068C005F6D55E4E07
:1020C000A0686C3601280FD00528306810D020F0A9
:1020D00001003060306820F004003060A068B8B1C2
:1020E000FFF728FD00900FE0306840F00100F4E7B2
:1020F00040F004003060F7E7FFF71CFD0099411A3B
:1021000041F28830814266D830688007F4D50EE00D
:10211000FFF710FD009007E0FFF70CFD0099411A52
:1021200041F28830814256D830688007F4D42FB10C
:10213000DBF8001021F08051CBF80010A069C8B383
:102140003D49091D0968C1F3810102294AD00228CD
:10215000504607D0C8F8600000E03CE0FFF7EAFC1A
:1021600004463BE04746C8F86000FFF7E3FC06463C
:1021700005E000BFFFF7DEFC801B02282BD8286893
:102180008001F7D4D4E907010843A16A2E4A49081F
:1021900002EB0141626A41EA8211084394F82C1073
:1021A00040EA0161C9F8001001203866FFF7C2FC5F
:1021B000044606E03EE000BFFFF7BCFC001B02281F
:1021C00009D828688001F7D534E000BFFFF7B2FCDA
:1021D000001B022802D90320BDE8F88F286880017F
:1021E000F4D427E00128F7D0D9F80000E26900F420
:1021F000800191421CD1226A00F03F01914217D127
:1022000047F6C071626A0140B1EB821F10D1A26A29
:102210004FF0FF3300F4403103EB5202B1EB024FB9
:1022200006D194F82C1000F07060B0EB016F01D073
:102230000120D1E70020CFE70438024000004742E8
:10224000800E4742007000400000FFFF704770475B
:1022500010B5040003D094F83D0010B107E0012050
:1022600010BD002084F83C00204600F01EF802203B
:1022700084F83D00211D206801F0DCFA012084F87B
:10228000460084F83E0084F83F0084F8400084F85B
:10229000410084F8420084F8430084F8440084F844
:1022A000450084F83D00002010BD704790F83D10B7
:1022B000012901D001207047022180F83D100168FA
:1022C000CA6842F00102CA6000681149884214D00D
:1022D000B0F1804F11D00F4988420ED00E4988428C
:1022E0000BD00E49884208D00D49884205D00D49CF
:1022F000884202D00C49884204D1816801F007016C
:10230000062903D0016841F00101016000207047F7
:10231000000001400004004000080040000C0040A4
:10232000000401400040014000180040704770B5B3
:102330000446006801694FF00005C943890715D4B8
:10234000C168C943890711D4E91E016101202077C2
:10235000206880698007204602D0FFF7E7FF04E08D
:1023600000F098F8204600F096F82577206801697B
:10237000C943490717D4C168C943490713D46FF04B
:1023800004010161022020772068806910F4407FF9
:10239000204602D0FFF7CAFF04E000F07BF8204699
:1023A00000F079F8257720680169C943090716D438
:1023B000C168C943090712D46FF008010161042004
:1023C00020772068C0698007204602D0FFF7AEFF63
:1023D00004E000F05FF8204600F05DF82577206803
:1023E0000169C943C90617D4C168C943C90613D4D2
:1023F0006FF010010161082020772068C06910F497
:10240000407F204602D0FFF791FF04E000F042F841
:10241000204600F040F8257720680169C943C907C4
:1024200008D1C168C943C90704D1891E016120468A
:1024300000F032F820680169C943090609D4C1686F
:10244000C943090605D46FF0800101612046FFF7FA
:10245000FDFE20680169C943490609D4C168C94322
:10246000490605D46FF040010161204600F01EF8D6
:1024700020680169C94389060BD4C168C94389062C
:1024800007D46FF0200101612046BDE87040FFF7DE
:10249000DEBE70BD7047704700680349884201D1B5
:1024A000FFF74EBB7047000000000140704700007E
:1024B00030B401680A68D2065ED50A684968816B43
:1024C000304A096891420AD02F4A914207D02D4ADA
:1024D0006032914203D02C4A6032914201D12022D5
:1024E00022E0284B1833DA1499421DD0264B1833BA
:1024F000994219D0234B7833994215D0224B783327
:10250000994211D01F4B9202303399420CD01E4B8E
:102510003033994208D01B4B9033994204D01A4B68
:102520009033994200D092010B6823F001030B60B5
:10253000816B154B09684833994202D91249091F2A
:1025400005E0104BA833994203D90F4908390A60B6
:1025500008E00C4C0B4B4834103BA14201D9DA6027
:1025600000E09A60826B818D12685160816B09680E
:102570000A6842F001020A60816A30BC0348FEF733
:10258000E3B900001060024010640240A848002037
:1025900070B5040004D094F83D00002510B106E0A9
:1025A000012070BD84F83C50204600F023F8242020
:1025B00084F83D002068C16821F40051C1602046C4
:1025C00001F0F2F92068016921F49041016120686D
:1025D000416921F02A0141612068C16841F400513C
:1025E000C1602564202084F83D0084F83E0000206E
:1025F00070BD000070B586B0064614216846FDF730
:10260000D4FF24493068884241D12348002501681D
:1026100041F010010160006800F0100005901E48B4
:102620001438016841F0020101600068694600F059
:1026300002000590C020009002200190012002902D
:1026400003200390072004901448FFF751F9154C1C
:10265000134820604FF00060C4E901054014C4E94C
:10266000035080106561C4E906502562204665620A
:10267000FFF7B0F808B1FEF7AFFBB4630022052105
:102680002520A663FFF7EEFA2520FFF7DDFA06B056
:1026900070BD0000001001404438024000040240B8
:1026A00040640240F003002030B40368DC6844F06A
:1026B0001004DC6030BC01F03BB9FEE79FED0A0A74
:1026C00080ED000A80ED010A80ED020A80ED030A28
:1026D00080ED040A80ED0A0A80ED090A80ED080AFF
:1026E00080ED0B0A7047000000000000DFED0A1AC1
:1026F00000F11403C0ED001AC0ED011AC0ED021A7A
:10270000C0ED031AC0ED041A83EC030AC0E90C12F1
:10271000C0ED0B1A704700000000000000B5014634
:1027200080EC020A30EE600A80ED020AD0ED030A66
:10273000D0ED051A30EE601A21EE211A80ED081A4C
:1027400090ED061A21EE001A80ED091AB0EE001A7B
:1027500000EEC10AD0ED040A01F1240030EE200A97
:10276000D1ED070A20EE200A81ED0A0A91ED0D0A4B
:10277000B8EE400A02F080FB91ED080AD1ED090A9B
:1027800001F12C0030EE200AD1ED0A0A30EE200AC9
:10279000D1ED0B0A30EE200A81ED0B0A91ED0C0A07
:1027A000B8EE400A02F068FB91ED030A81ED040ADD
:1027B00091ED020A81ED030A91ED0B0A00BD0000C4
:1027C00070B51B480125817CC27C090441EA424462
:1027D000808A17490443002011F1180101EB00031E
:1027E00005FA00F21E7D22420ED0761CF6B21E754E
:1027F000012E02D98E6816438E601B7D142B13D9CF
:102800000B6913430B610FE0B61E122ECE6801D286
:10281000164300E09643CE608E6896438E600E6944
:10282000964300220E611A75401C1228D6DB70BD3B
:10283000A84800200F4810B50D49016007214160EC
:1028400000214FF440328160C0E9031241610176FA
:10285000012242768276C27601774177FEF725FD26
:10286000002803D0BDE81040FEF7B6BA10BD000046
:10287000006400405C0300200F4810B50D49016062
:102880000721416000214FF440328160C0E903120A
:1028900041610176012242768276C27601774177E4
:1028A000FEF703FD002803D0BDE81040FEF794BA00
:1028B00010BD00000068004084030020094808B5EE
:1028C000016841F4800101600068002200F480008A
:1028D000009005213A20FFF7C5F9BDE808403A20ED
:1028E000FFF7B2B93038024010B58EB01C220B4948
:1028F0006846FDF728FE0021684602F05BFB084CA5
:1029000006491C2220601C3107A8FDF71CFE00218F
:1029100007A802F04FFB60600EB010BD1C770008E6
:1029200000000020114808B5016841F00101016074
:10293000016801F001010091016841F002010160AC
:10294000016801F002010091016841F00801016095
:10295000016801F008010091016841F08001016007
:10296000006800F08000009008BD00003038024090
:102970000D4810B50B4901600C49416000214FF42E
:1029800080628160C0E903120C22C0E90521C161A7
:10299000FFF7FEFD002803D0BDE81040FEF71CBA8B
:1029A00010BD000000100140AC030020A086010013
:1029B000FEE7FEE79FED0A0A80ED000A80ED010ABE
:1029C00080ED020A80ED030A80ED0A0A80ED090A13
:1029D00080ED080A80ED040A80ED0B0A70470000C4
:1029E00000000000DFED091AC0ED001AC0ED011A69
:1029F000C0E90C12C0ED021AC0ED031AC0ED041AB2
:102A0000C0ED0B1A143080EC030A70470000000080
:102A100000B5014680EC020A30EE600A274A80EDDC
:102A2000020A10EE100A904209DA10EE100A244A47
:102A3000904204D29FED230A81ED0B0A00BDD1ED37
:102A4000040A01F1240070EE800AC1ED040A91ED40
:102A5000051A21EE001A81ED081A91ED061A61EEB1
:102A6000200AC1ED090AD1ED030A30EE600AD1ED6A
:102A7000070A20EE200A81ED0A0A91ED0D0AB8EE50
:102A8000400A02F0F9F991ED080AD1ED090A01F1C5
:102A90002C0030EE200AD1ED0A0A30EE200A81ED3A
:102AA0000B0A91ED0C0AB8EE400A02F0E5F991ED3F
:102AB000020A81ED030A91ED0B0A00BD0000A0405F
:102AC0000000A0C0000000002DE9F04F6D486E4EE0
:102AD0002DED048B06F1F00581B0C088B0EE418A7F
:102AE000F0EE608AB0EE409A05F5F07700287DD0D0
:102AF0000120FEF757F9012878D0BDEEC80A634BD4
:102B000010EE100ABDEEE80A02B210EE100ABDEE99
:102B1000C90A01B210EE100A00B200F017FCAA4672
:102B2000A5F598780024B346B946A5F588755848A8
:102B3000C4EBC40600EB8400D0ED000A534830F922
:102B4000140000EE100A09EBC600B8EEC00AFFF749
:102B5000E5FD08EBC400C4EB041780ED010A4C4806
:102B6000203800EB8400D0ED000A4948903800EB93
:102B7000860090ED010A0BEB8700FFF749FF444800
:102B800005EBC406103800EB840086ED000AD0ED9A
:102B9000000A0AEB8700FFF73BFF641CE4B286EDF6
:102BA000010A042CC3D395ED070ABDEEC00A10EE4E
:102BB000100A00B2009095ED050ABDEEC00A10EEB5
:102BC000100A95ED030A03B2BDEEC00A10EE100A1A
:102BD00095ED010A02B2BDEEC00A10EE100A01B274
:102BE0002C48FDF743FE98ED070A00E022E0BDEE19
:102BF000C00A10EE101A09B2009198ED050ABDEE58
:102C0000C00A10EE101A98ED030A0BB2BDEEC00A0E
:102C100010EE101A98ED010A0AB2BDEEC00A10EECD
:102C2000100A01B21B48FDF745FE01B0BDEC048B54
:102C3000BDE8F08FDFF860900024B046C4EB0416C6
:102C400008EB8600FFF7B6FE05EB8600FFF7B2FE45
:102C500009EB8600FFF7AEFEC4EBC40007EBC00033
:102C6000FFF72CFD641C042CE8DB002423462246DD
:102C7000214608480094FDF7F9FD00231A4619463D
:102C80000094CFE704490020E4430020D400002052
:102C9000244800205C030020C445002070B506468F
:102CA000C0EBC6014C482DED028B00EB810484B0D3
:102CB00090ED000AD4ED010A8DED000A90ED070AAF
:102CC0008DED010A90ED0E0A8DED020A90ED150AC8
:102CD000703000EB86008DED030A90ED000ADFED09
:102CE0003F8A9FED3F8A3F4D80EE281ABDEEC11A04
:102CF00011EE100A80EE081ABDEEC11A11EE101A7C
:102D0000401A01EE100A606105F12800F8EEC11AC0
:102D1000B0EE601A01EE881AD4ED001A31EE211AD5
:102D200084ED011A31EE400AC5ED080A85ED0A0A64
:102D3000FDF748FD95ED0A0A02F028F910EE100A99
:102D40002949884238DDE878012805D0287818B16B
:102D50002889B0F5FA7F2FD294ED010A2148B0EE10
:102D6000681A30EE280A2C3084ED010AD5ED080AE5
:102D700070EEA80AC5ED080A30F81610494220F88E
:102D80001610D4ED050AF8EEE01A01EE881AB4EE3A
:102D9000C10AF1EE10FA02DD30EE480A0AE0F8EE60
:102DA000E00A50EE888AB4EEE80AF1EE10FA03D297
:102DB00030EE080A84ED010A684694ED010A00EB42
:102DC000860080ED000A95ED080A84ED020A04B041
:102DD000BDEC028B70BD000094470020000034431E
:102DE0000000B443A80000200000B44208B502F07F
:102DF000DDFD0090FDF718FEFDF7BAFFFDF786FF39
:102E000000F005F80221684602F04CFCF4E7FDF7FB
:102E10008DBE00002DE9F04715462DED068B0F46BF
:102E200006469FEDFE0B00F07BFE51EC100B02F00E
:102E300097FE09EE900AFB4C56EA07014FF4FA732D
:102E40004FF000004FF001027DD0A0702070E080B4
:102E500029439FEDF58BDFF8D8C30CF580689CED16
:102E6000002ADCED011A9CED021A9CED030A9FED8D
:102E7000F19A69D02178012900D02081E27088ED93
:102E8000002AC8ED071A88ED0E1A88ED150A91463A
:102E9000B0EE690AFDF75AFAF0EE400A00EE105A59
:102EA00094ED041AB8EEC00A20EE011A00EE107A72
:102EB000B8EEC00A01EE200A10EE100A04F0ACF9D8
:102EC00041EC1A0BB0EE690AFDF77CFAD4ED040A66
:102ED00020EE201A00EE106A00EE905AB8EEC00AFA
:102EE000F8EEE00A00EEC10A10EE100A04F094F9C0
:102EF00041EC100BB0EE4A1AF0EE6A1A00F07CFFBB
:102F000053EC182B51EC100B03F088FB02F028FE59
:102F1000B0EE690AC8F80400FDF718FAB0EE401ADE
:102F200000EE105AD4ED040AB8EEC00A60EE201A82
:102F300000EE107AF8EEC00A41EEC10A10EE900AD7
:102F400004F06AF901E0C1E0D2E041EC1A0BB0EE06
:102F5000690AFDF737FAD4ED040A20EE201A00EED4
:102F6000106AF8EEC00A00EE105AB8EEC00A40EE41
:102F7000410A10EE900A04F04FF941EC100BB0EE4C
:102F80004A1AF0EE6A1A00F037FF53EC182B51EC96
:102F9000100B03F043FB02F0E3FDB0EE690AC8F842
:102FA0002000FDF7D3F9B0EE401A00EE105AD4ED30
:102FB000040AB8EEC00A60EE201A00EE107AF8EEAD
:102FC000C00A41EEC10A10EE900A04F025F941EC66
:102FD0001A0BB0EE690AFDF7F5F9D4ED040A20EEFC
:102FE000201A00EE106AF8EEC00A00EE105AB8EE91
:102FF000C00A40EE010A10EE900A04F00DF941EC0F
:10300000100BB0EE4A1AF0EE6A1A00F0F5FE53EC1F
:10301000182B51EC100B03F001FB02F0A1FDB0EEF8
:10302000690AC8F83C00FDF791F9F0EE400A00EE9D
:10303000105A94ED041AB8EEC00A20EE011A00EE00
:10304000107AB8EEC00A01EE200A10EE100A04F061
:10305000E3F841EC1A0BB0EE690AFDF7B3F9D4EDD1
:10306000040A20EE201A00EE106A00EE905AB8EE24
:10307000C00AF8EEE00A00EE810A10EE100A04F031
:10308000CBF841EC100BB0EE4A1AF0EE6A1A00F0E1
:10309000B3FE53EC182B51EC100B03F0BFFA02F007
:1030A0005FFD6435C8F85800C82D01D984F8029036
:1030B00000EE106AB8EEC00A84ED050A84ED069AA7
:1030C00084ED079ABDEC068BBDE8F08705F1450C51
:1030D0002270BCF18A0F3FF6BBAEB4F806C09C4527
:1030E000BFF4B6AE0CF1010CA4F806C00025AFE6A3
:1030F000E070218999427DD2491C2181A078012864
:1031000079D0002000EE100AB8EE400A84ED070ADC
:10311000B0EE690AFDF71AF9F0EE400A94ED070ADD
:1031200094ED041A20EE011A94ED060A01EE200A2D
:1031300010EE100A04F070F841EC1A0BB0EE690AB8
:10314000FDF740F9D4ED040A94ED071A20EE200AA9
:10315000D4ED050A41EE400A10EE900A04F05CF846
:1031600041EC100BB0EE4A1AF0EE6A1A00F044FE81
:1031700053EC182B51EC100B03F050FA02F0F0FC5A
:103180004546B0EE690AC8F80400FDF7DFF8F0EE36
:10319000400A94ED070A94ED041A20EE011A94ED0A
:1031A000060A01EE600A10EE100A04F035F841EC50
:1031B0001A0BB0EE690AFDF705F9D4ED040A94ED97
:1031C000071A20EE200AD4ED050A41EE400A10EE5F
:1031D000900A04F021F841EC100BB0EE4A1AF0EE20
:1031E0006A1A00F009FE53EC182B51EC100B03F097
:1031F00015FA01E087E084E002F0B2FCB0EE690A63
:103200002862FDF7A3F8F0EE400A94ED070A94ED6A
:10321000041A20EE011A94ED060A0DE000000000E9
:103220000000F03FA800002000000000DCA54C409A
:10323000944300200000000001EE600A10EE100A26
:1032400003F0EAFF41EC1A0BB0EE690AFDF7BAF899
:10325000D4ED040A94ED071A20EE200AD4ED050AF5
:1032600041EE000A10EE900A03F0D6FF41EC100B7D
:10327000B0EE4A1AF0EE6A1A00F0BEFD53EC182BBD
:1032800051EC100B03F0CAF902F06AFCB0EE690AC7
:10329000E863FDF75BF8F0EE400A94ED070A94ED61
:1032A000041A20EE011A94ED060A01EE200A10EE2F
:1032B000100A03F0B1FF41EC1A0BB0EE690AFDF7FA
:1032C00081F8D4ED040A94ED071A60EE200A94ED1B
:1032D000050A01EE200A10EE100A03F09DFF41ECF2
:1032E000100BB0EE4A1AF0EE6A1A00F085FD53ECAE
:1032F000182B51EC100B03F091F902F031FCA8658A
:10330000E0E63220FEE6DFED100AA070404632EE25
:10331000602A71EEA01A31EE601A88ED002A30EEB4
:10332000200AC8ED071A88ED0E1A88ED150A00214B
:10333000C1EBC10200EB8202491CC9B282ED019AC5
:103340000429F5D3BEE60000000034422DE9F04127
:103350001E462DED088B14460D460746B7EE008A33
:10336000DFEDF48A9FEDF40B00F0DAFB51EC100B6B
:1033700002F0F6FBDFF8C8830BEE100A224688ED58
:10338000098A29463846FFF745FD57EA05007DD0F2
:103390000021A8F8041000BFB0EE4B0AFCF7D6FFDE
:1033A000B0EE401A00EE105A00EE904AB8EEC00A95
:1033B000F8EEE00A00EE810A10EE100A03F02CFF8E
:1033C00041EC100B9FEDDFABB0EE4A1AF0EE6A1A3B
:1033D00000F012FEB0EE409AF0EE609AB0EE4B0AAA
:1033E000FCF7F0FFB0EE401A00EE107A00EE904AC3
:1033F000B8EEC00AF8EEE00A00EEC10A10EE100ABC
:1034000003F00AFF41EC100BB0EE4A1AF0EE6A1A14
:1034100000F0F2FD53EC192B51EC100B02F002FD01
:1034200041EC100B01F010FC51EC100B02F08CFB86
:1034300003F030F83080B0EE4B0AFCF787FFB0EEB7
:10344000401A00EE105A00EE904AB8EEC00AF8EEAC
:10345000E00A00EEC10A10EE100A03F0DDFE41ECB6
:10346000100BB0EE4A1AF0EE6A1A00F0C5FDB0EE8D
:10347000409AF0EE609AB0EE4B0AFCF7A3FFB0EE74
:10348000401A00EE107AF8EEC00A00E0C2E000EE4A
:10349000104AB8EEC00A40EE410A10EE900A03F05E
:1034A000BBFE41EC100BB0EE4A1AF0EE6A1A00F0C7
:1034B000A3FD53EC192B51EC100B02F0B3FC41ECC3
:1034C000100B01F0C1FB51EC100B02F0E3FF708018
:1034D000B0EE4B0AFCF73AFFB0EE401A00EE105A7D
:1034E00000EE904AB8EEC00AF8EEE00A00EEC10A1B
:1034F00010EE100A03F090FE41EC100BB0EE4A1AE9
:10350000F0EE6A1A00F078FDB0EE409AF0EE609AA4
:10351000B0EE4B0AFCF756FFB0EE401A00EE107A00
:1035200000EE904AB8EEC00AF8EEE00A00EE810A1A
:1035300010EE100A03F070FE41EC100BB0EE4A1AC8
:10354000F0EE6A1A00F058FD53EC192B51EC100BF9
:1035500002F068FC41EC100B01F076FB51EC100B13
:1035600002F098FFB080B0EE4B0AFCF7EFFEB0EE31
:10357000401A00EE105A00EE904AB8EEC00AF8EE7B
:10358000E00A00EE810A10EE100A03F045FE41EC5D
:10359000100BB0EE4A1AF0EE6A1A00F02DFDB0EEF4
:1035A000409AF0EE609AB0EE4B0AFCF70BFF00EE8B
:1035B000907A01EE104AF8EEE00AB8EEC11A41EE38
:1035C000000A10EE900A03F027FE41EC100BB0EE5B
:1035D0004A1AF0EE6A1A00F00FFDB0EE401AF0EE53
:1035E000601A53EC192B51EC110B02F01BFC41EC4F
:1035F000100B01F029FB51EC100B02F0A5FA02F0C0
:1036000049FF02B2F280002136F91100002811DBD7
:10361000034610E004F145008A283FF6BDAEB8F835
:103620000400B0F5FA7FBFF4B7AE401CA8F8040060
:103630000024B1E6434200EE103AB8EEC00AB4EE00
:10364000E80AF1EE10FA06DD002800DA404200EE4A
:10365000100AF8EEC08A491CC9B20429D4D398EDE7
:10366000030AF4EEC08AF1EE10FA01DD80EE288A3A
:10367000B6F9000000EE100AB8EEC00A20EE080A03
:10368000BDEEC00A10EE100A3080B6F9020000EE5E
:10369000100AB8EEC00A20EE080ABDEEC00A10EE0D
:1036A000100A7080B6F9040000EE100AB8EEC00AE5
:1036B00020EE080ABDEEC00A10EE100A00EE102A35
:1036C000B0800022B8EEC00A114620EE080ABDEE16
:1036D000C00A10EE100AF0801046FFF7DFFA002251
:1036E00011460120FFF7DAFA002211460220FFF707
:1036F000D5FA002211460320FFF7D0FA134D00221D
:10370000A5F1700405EB8200D0ED000AC2EBC20007
:1037100004EB8003104693ED010A00F0EFF8521C11
:10372000D2B283ED010A042AECD3BDEC088BBDE8CC
:10373000F081000000000000000000000000F03FE9
:10374000A800002000000000000000400448002005
:10375000012001F023FCFBE710B5502080F3118815
:10376000BFF34F8FBFF36F8F02F026F918B10449F2
:103770004FF080500860002080F3118810BD0000D9
:1037800004ED00E030B593B030216846FCF70DFF42
:1037900014210CA8FCF709FF1D480025016841F021
:1037A00080510160006800F0805011901948016854
:1037B00041F4404101600068022400F4404011904F
:1037C00001200090000401908001CDE90640062010
:1037D0000890A820CDE9090404200B906846FEF764
:1037E0007FFB08B172B6FEE70CA90F2081E831001B
:1037F0004FF4A0500F904FF48050109005210CA86A
:10380000FEF762FA002801D072B6FEE713B030BDB1
:1038100040380240007000400248016841F47001E5
:103820000160704788ED00E00148FEF780BD0000B0
:1038300050040020F0B50268254C264D264E274F37
:10384000274B4FF0804CA04209D0604507D0A842DA
:1038500005D0B04203D0B84201D0984204D122F042
:10386000700E4A6842EA0E02A0421BD0604519D091
:10387000A84217D0B04215D0B84213D0984211D008
:10388000184DA8420ED0184DA8420BD0174DA84293
:1038900008D0174DA84205D0164DA84202D0164DAB
:1038A000A84203D122F44075CA682A434D6922F028
:1038B00080022A4302608A68C2620A688262A04269
:1038C00001D0984201D10969016301214161F0BD34
:1038D000000001400004004000080040000C0040CF
:1038E0000004014000400140004401400048014004
:1038F00000180040001C00400020004070EE600AEC
:1039000008499FED091A10EE900A884202DD30EE58
:10391000410A704710EE900A04498842F9D930EE06
:10392000010A7047000034430000B443000034C370
:10393000F8B5044690F83E00202833D179B372B32D
:1039400094F83C0001282DD0012084F83C00A162AD
:10395000A28500252564222084F83E00A06B134632
:1039600005650846A66B216802463046091DFDF72D
:103970009BFF206801684168009184F83C50C16851
:1039800041F48071C1602068416941F001014161E9
:103990002068416941F0400141610020F8BDFFE726
:1039A0000120FBE70220F9E770B5044600680169D1
:1039B000E26821F44051114301612169A068E26984
:1039C00008436169114308432168CA6849F20C63DE
:1039D0009A430243CA6020684169A26921F4407198
:1039E0001143416131492068884202D03049884200
:1039F00002D1FEF733FA01E0FEF720FAE269002374
:103A0000192164253226B2F5004F626828D0A0FB48
:103A10000101930F9200FCF71FFD0146B0FBF5F08A
:103A20006FF01802504301EB800006EB0010B0FB72
:103A3000F5F000F0F002B1FBF5F002EB0012B1FB83
:103A4000F5F06FF01803584301EB800006EB00100F
:103A5000B0FBF5F000F00F0021681044886070BDE5
:103A6000A0FB010192185B41FCF7F6FC0146B0FB9C
:103A7000F5F00201B1FBF5F06FF01803584301EBCC
:103A8000800006EBC000B0FBF5F000F0F80002EBA0
:103A90004002B1FBF5F0584301EB800006EBC0009B
:103AA000B0FBF5F000F00700D6E700000010014081
:103AB0000014014010B50448FEF7FAFCBDE81040C0
:103AC0000020FDF77FB90000AC030020FEE703B43F
:103AD00001984100009850EAC12018BF04204A0D07
:103AE00018BF40F0010040F2FF72B2EB515F08BF17
:103AF00040F00200012808BF052002B07047090706
:103B0000090E002804DB00F1E02080F80014704763
:103B100000F00F0000F1E02080F8141D7047000055
:103B200070B59B482DED020B2DED068B079D25F002
:103B30000044A04218DC9748844202DC0AD106986F
:103B400040B19DED060BBDEC068B02B0BDE87040A8
:103B500001F04EB9002DCCBF9FED8F0B9FED900B68
:103B6000BDEC068B02B070BD8F48A04215DD8F48BA
:103B7000A042D8BF4FF0FF3458DD9DED060B51EC4D
:103B8000100BFFF7A4FF042808BF01F065F99DEDB5
:103B9000060BBDEC068B02B070BD9DED060B51EC23
:103BA000100B01F086F9CDE9060181489FED828B6B
:103BB000A0423CDD8248A0421FDD00249FED82AB85
:103BC0009DED060B53EC1A2B51EC100B02F02AF969
:103BD0009DED060B41EC190B53EC1A2B51EC100B1D
:103BE00002F01CFD53EC182B03F014F853EC192BC6
:103BF00002F058FACDE9060149E09DED060B0124DB
:103C000053EC182B51EC100B02F00CF99DED060B48
:103C100041EC190B53EC182B51EC100B02F0FAFF8E
:103C200053EC192B02F03EFACDE906012FE068486B
:103C3000A0421FDD02249FED689B9DED060B53EC17
:103C4000192B51EC100B02F0E9FC53EC182B02F08D
:103C5000E9F89DED060B41EC180B53EC192B51ECD8
:103C6000100B02F0D7FF53EC182B02F01BFACDE932
:103C700006010CE09DED060B032453EC102B9FED89
:103C8000580B51EC100B02F00DFACDE906019DED39
:103C9000060B53EC102B51EC100B02F0BFFC41EC67
:103CA000180B53EC182B02F0B9FC41EC190B4E48E1
:103CB0000621B0EE490AF0EE690A784401F001F8F5
:103CC00053EC182B51EC100B02F0A8FC41EC180B34
:103CD0004648B0EE490AF0EE690A0521784400F042
:103CE000F0FF53EC192B51EC100B02F097FC41EC58
:103CF000100B51EC180B53EC102B002C0EDA02F0C9
:103D000091F89DED061B53EC112B02F087FC9DED05
:103D1000061B53EC112B02F051FE35E002F082F845
:103D20009DED061B53EC112B02F078FC41EC100BBF
:103D30002F48784400EBC40090ED001B51EC100BB1
:103D400053EC112B02F066FF9DED061B53EC112B7B
:103D500002F060FF41EC100B2648784400EBC400F1
:103D600090ED001B51EC100B53EC112B02F026FED2
:103D700041EC100B002DA2BFBDEC068B02B070BD54
:103D800051EC100B01F0E0FE41EC100B01E70000DC
:103D9000000010440000F07F182D4454FB21F93F2F
:103DA000182D4454FB21F9BF0000DC3F0000203EE9
:103DB0000000F33F00000000000000000000F03FA2
:103DC0000000E63F0000000000000000000000408E
:103DD0000080034000000000000000000000F83FE9
:103DE000000000000000F0BF22430000D8420000A5
:103DF000624200001A42000070B56F4E2DED040BB8
:103E00002DED048B82B0DDF824C0DDE907235C4290
:103E10002CF000411C4341EAD474069D22F000407E
:103E2000B44205D86C422C4340EAD474B4420BD956
:103E30009DED081B9DED060B02B0BDEC048B04B09C
:103E4000BDE8704000F0DEBFACF14054A4F17F64E7
:103E50001C430BD0022404EAAC7444EAD274054338
:103E60009FED578B9FED582B07D015E09DED060B6E
:103E700051EC100B01F015F842E0002C11BF012CA1
:103E80009DED060B02B0BDEC048B04BF04B070BD09
:103E9000022C38D0032C3BD00B439FED4D1B9FEDE4
:103EA0004E0B0AD0B14218D1B04209D121F0804165
:103EB00020F08040099107900FE0002A15DA10E009
:103EC000474B7B44002C08BF93ED000B0DD0012C19
:103ED00010D0022C17D0032C1AD0B0421DD1002ACA
:103EE00003DAB0EE410AF0EE610A02B0BDEC048BD9
:103EF00004B070BD93ED000B51EC100B01F024FEEB
:103F000041EC100BF1E7B0EE480AF0EE680AECE77E
:103F1000B0EE420AF0EE620AE7E7401A00159FEDA4
:103F2000329B3C28C8BF8DED000B17DCBCF1000FA5
:103F3000BCBF10F13C0F8DED009B0FDB9DED080B1E
:103F400053EC102B9DED060B51EC100B02F0AAF870
:103F500000F0AFFF00F0A5FFCDE90001B4B1012CE6
:103F600010D0022C9FED220B53EC102B9DED000B7B
:103F700051EC100B19D002F04DFE53EC182B02F04F
:103F800049FEBDE7019880F0004001909DED000BD7
:103F900053EC192B51EC100B02F042FA04BF022033
:103FA000FCF732FB9DED000B9FE702F033FE53EC74
:103FB000182B02F003FDA3E70000F07F00000000D3
:103FC000182D4454FB210940182D4454FB2109C0ED
:103FD000182D4454FB21F9BF182D4454FB21F93FFF
:103FE000D2410000000000000000000000000000BE
:103FF000075C143326A6A13C2DE9F04D2DED040BF2
:104000002DED0E8B96B0DDE92550279CDDF890A0B4
:1040100025F0004624F00048BAF1000F14BF01213A
:10402000002101EB4502FC4953184A1093422AD360
:10403000002814BF0123002303EB44030B44F7497A
:104040008B4220D358EA00019FEDF59B76D0DFF834
:10405000D8B35D4503D1BAF1000F05D188E0BAF1BC
:10406000000F08BF002100D0012101EB450111F52F
:10407000001F08D8002814BF0121002101EB4401D2
:1040800011F5001F0BD99DED261B9DED240B16B0DD
:10409000BDEC0E8B04B0BDE8F04D00F0B3BE0027C0
:1040A000002DBCBFE149884521DAE1498845A8BF18
:1040B00002271CDAC3451ADCDE4901EB285114291A
:1040C00008DDC1F1340220FA02F101FA02F2824263
:1040D0000DD108E058B9C1F1140228FA02F101FA31
:1040E00002F2424503D101F00101C1F1020756EA93
:1040F0000A0124D1002C22DA002D18BF022F01D092
:10410000012F0AD00220FCF77FFA16B0BDEC0E8B0F
:1041100004B0BDE8F04D00F053BE0220FCF774FA85
:1041200000F04EFE51EC100B01F00EFD41EC100BB7
:1041300016B0BDEC0E8B04B0BDE8F08D18E09FED1D
:10414000BEAB9FEDBF8B002871D1B848804522D10E
:1041500005F1804010F5801008BFBAF1000F07D0BC
:10416000B3450ADC002CA8BF9DED260BE0DA0DE07C
:10417000B0EE490AF0EE690ADAE7002C06DA9DEDA6
:10418000260B51EC100B01F0DFFC6FE0AE487844D9
:1041900090ED000BCCE7D8454DD1002C48DA2EB17C
:1041A00086423AD1BAF1000F42D126E0BAF1000FAF
:1041B00013D00220FCF728FA00F03EFE8DED020B32
:1041C0009DED240B8DED000B10EE900A039961F329
:1041D0001E0003909DED020BAAE78DED02AB9DED55
:1041E000240B1AEE901A10EE900A8DED000B61F37D
:1041F0001E0003909DED020B9AE78DED028B9DED65
:10420000240B18EE901A10EE900A8DED000B61F35E
:104210001E0003909DED020B8AE709DA9DED240B49
:1042200051EC190B53EC102B01F03CFF1EE020E089
:104230009DED240B7CE786421BDAB4F1804F0DD054
:10424000A4F10050B0F1FF5013D1002D11DB9DED12
:10425000240B51EC100B01F001F907E09DED240B4C
:1042600053EC102B51EC100B00F0C2BC41EC100BC6
:104270005EE79DED240B51EC100B00F01AFEBAF135
:10428000000FCDE90E0142D19FED710B46B3A6F1AF
:10429000E040B0F17F600CD05E4538D1002D00DAEF
:1042A000A7B3022F0CBF01204FF0FF3002F056F9E8
:1042B000DCE7002D01DD002C0DDA002D01DD002CE6
:1042C0001FDB002D16DA002C14DB012F08BF9FED39
:1042D000620B3FF42DAFB0EE4A0AF0EE6A0A27E710
:1042E000022F18BF002D0CD0012F0AD1002DFFF690
:1042F0001FAF06E0002DB8BF002C08DA012F3FF4F5
:1043000017AFB0EE480AF0EE680A11E71BE0012093
:1043100000EBE57050EA070115D0791EB0EE498A2E
:10432000F0EE698A084308BF9FED4D8B4E4800258B
:10433000804570DD4D494E48884514DDB0420DDBA7
:10434000002C19DB2FE00120FCF75EF916B0BDEC64
:104350000E8B04B0BDE8F04D00F05EBDB34502DC4D
:10436000002C09DC1FE0864202DA002C1BDA03E095
:104370005E452BDD002C16DD0220FCF745F900F030
:104380005BFD8DED020B53EC1A2B51EC180B02F078
:1043900045F9CDE900010399019861F31E000390EE
:1043A0009DED020BC4E60220FCF72EF900F054FD4F
:1043B00010EE901A18EE900A8DED020B8DED008B29
:1043C00061F31E0003909DED020BB1E69DED0E0B17
:1043D00053EC192B51EC100B02F01CFC9FED260B3B
:1043E000CDE9080153EC102B9DED080B51EC100B9F
:1043F00002F014F99FED221B53EC112B02F0DEFAB0
:104400009DED081B53EC112B02F008F99FED1E1BCC
:1044100053EC112B3CE08CE0FFFF1F00FFFF0F006F
:10442000000000000000F03F0000F03F0000F07FBF
:104430000000404301FCFFFF000000000000F07F8F
:104440000000000000000000063F00000000000027
:104450000000000000000080000000000000F0FFED
:10446000000000000000F0BF0000E0410000F04349
:10447000FFFFEF3F00000000000000000000D03F01
:10448000555555555555D53F000000000000E03FFB
:1044900002F094FA9DED080B41EC1A0B53EC102B33
:1044A00051EC100B02F0BAF853EC1A2B02F0B6F8EC
:1044B00041EC1A0B9FEDFE0B53EC102B9DED080BFE
:1044C00051EC100B02F0AAF841EC1B0B9FEDFA0B1C
:1044D00051EC1A0B53EC102B02F0A0F841EC1A0B24
:1044E0009FEDF70B53EC102B9DED080B51EC100BCF
:1044F00002F094F853EC1A2B02F08CFB41EC1A0BEF
:1045000051EC1B0B53EC1A2B01F08CFC0690CDE9FF
:1045100006519DED060B53EC1B2B51EC100B02F0DA
:1045200079FB53EC1A2B02F049FA41EC100B00F026
:10453000A1B90020B6F5801F0EDA9FEDE30B53EC16
:10454000102B9DED0E0B51EC100B02F067F8CDE92E
:104550000E016FF034000E4600EB2650A0F2FF373C
:10456000C6F31300DA4940F07F6646F040568842B1
:10457000D8BF002408DDD7498142C8BF012403DC2D
:104580000024A6F580167F1CD348784400EBC400B5
:104590000F9690ED00CB9DED0E0B53EC1C2B51ECC8
:1045A000100B02F037FB9DED0E0B41EC1B0B53EC97
:1045B0001C2B51EC100B01F035FC41EC100B51ECB5
:1045C000190B53EC102B01F06DFD41EC1D0B51EC60
:1045D0001B0B53EC1D2B02F021F841EC1A0BBF48CA
:1045E0008DED10AB7844109590ED000B4FF000501E
:1045F00040EA660000EB84408DED080B00F50020DA
:1046000009909DED080B53EC1C2B51EC100B02F0A4
:1046100001FB9DED0E1B53EC112B02F0CFF941EC89
:10462000100B53EC102B9DED100B51EC100B01F007
:10463000F5FF9DED080B41EC1C0B53EC102B9DED91
:10464000100B51EC100B01F0E9FF53EC1B2B02F0A7
:10465000B5F953EC1C2B02F0DDFA53EC1D2B01F0E5
:10466000DDFF41EC1C0B53EC1A2B51EC1A0B01F043
:10467000D5FF41EC1B0B9A480621B0EE4B0AF0EE39
:104680006B0A784400F01DFBB0EE401AF0EE601AA1
:10469000B0EE41DAF0EE61DA53EC1B2B51EC1B0B60
:1046A00001F0BCFF53EC1D2B01F0B8FF9DED100B8A
:1046B00041EC1B0B53EC1A2B51EC100B01F0B2FB2D
:1046C00053EC1C2B01F0AAFF53EC1B2B01F0AAFBAF
:1046D0009DED100B41EC1B0B53EC102B51EC100B10
:1046E00001F09CFF41EC1D0B9FED7FEB53EC1E2B6B
:1046F00001F098FB53EC1B2B01F094FB0890CDE9E3
:1047000008519DED080B53EC1E2B51EC100B02F0E1
:1047100081FA53EC1D2B02F07DFA53EC1B2B02F0B7
:104720004DF99DED080B41EC1D0B53EC102B9DED4D
:10473000100B51EC100B01F071FF41EC1B0B53EC13
:104740001A2B51EC1D0B01F069FF9DED080B41EC9C
:104750001A0B53EC102B51EC1C0B01F05FFF53ECC8
:104760001A2B01F05FFB41EC1A0B51EC1B0B53ECC5
:104770001A2B01F057FB0C90CDE90C519DED0C0B61
:1047800053EC1B2B51EC100B02F044FA53EC1A2B98
:1047900002F014F941EC1B0B9FED550B53EC102B61
:1047A0009DED0C0B51EC100B01F038FF41EC1A0B96
:1047B0009FED510B51EC1B0B53EC102B01F02EFF16
:1047C00041EC1B0B9FED4E0B53EC102B9DED0C0B96
:1047D00051EC100B01F022FF53EC1B2B01F022FBDC
:1047E00041EC100B4848784400EBC40090ED001BEE
:1047F00051EC100B53EC112B01F014FB41EC1B0B93
:10480000384601F0ABFECDE9080153EC1B2B51EC0F
:104810001A0B01F007FB41EC100B3C48784400EB0D
:10482000C40090ED00CB51EC100B53EC1C2B01F0AD
:10483000F9FA9DED081B53EC112B01F0F3FA0690E9
:10484000CDE906519DED080B53EC102B9DED060BA9
:1048500051EC100B02F0DEF953EC1C2B02F0DAF9EC
:1048600053EC1A2B02F0D6F953EC1B2B02F0A6F8EE
:1048700041EC100B9DED261B53EC102B8DED001B16
:1048800000959DED260B51EC100B01F0C7FE9DED40
:10489000000B41EC1A0B53EC102B9DED260B51EC49
:1048A000100B02F0B7F99DED061B53EC112B2FE016
:1048B000000000604715F73FFE822B654715F73F64
:1048C00044DF5DF80BAE543E0000000000004043A2
:1048D0008E9803007AB60B00823A0000B03A0000CE
:1048E000BA3900000000000000000000000008408D
:1048F000000000E009C7EE3FFD033ADC09C7EE3FC8
:10490000F5015B14E02F3EBE463800000038000081
:1049100001F084FE53EC1A2B01F084FA9DED060B96
:1049200041EC1A0B53EC102B9DED000B51EC100BCE
:1049300001F074FECDE90C019DED0C0B51EC1A0B4E
:1049400053EC102B01F06EFACDE902010C46AA4996
:104950008C422FDB611A084318D19DED0C0B53ECF0
:10496000102B9DED020B51EC100B02F053F941ECB2
:104970001B0B9FEDA30B51EC1A0B53EC102B01F00A
:1049800051FA53EC1B2B01F0E8FF2DD20220FBF76C
:104990003BFE00F051FA10EE901A18EE900A8DEDE1
:1049A000020B8DED008B61F31E0003909DED020B59
:1049B000FFF7BEBB944A24F00041914214D39349BF
:1049C000214408437FF4EFAC9DED0C0B53EC102B0E
:1049D0009DED020B51EC100B02F01CF953EC1A2B5D
:1049E00001F0BBFF7FF6DFAC24F000408849894A24
:1049F000002601EB205182422BDA481C4FF4801133
:104A000021FA00F02044844AC0F30A517A44A1F20A
:104A1000FF3192ED000B814A8DED080BCA4020EA70
:104A20000202C0F3130040F48010C1F1140120FA17
:104A300001F60992002CB8BF76429DED080B53ECAD
:104A4000102B9DED0C0B51EC100B02F0E3F8CDE9AF
:104A50000C019DED0C0B51EC1A0B53EC102B01F0DB
:104A6000E1F99FED6F0B0890CDE9085153EC102B45
:104A70009DED080B51EC100B01F0D0FD41EC1B0B30
:104A80009FED690B53EC102B9DED080B51EC100BB7
:104A900001F0C4FD9DED0C0B41EC1C0B53EC102BF5
:104AA0009DED080B51EC100B02F0B4F853EC1A2BEF
:104AB00001F084FF9FED5E1B53EC112B01F0AEFD66
:104AC00053EC1C2B01F0AEF941EC1A0B51EC1B0B13
:104AD00053EC1A2B01F0A6F9CDE902019DED020B72
:104AE00053EC1B2B51EC100B02F094F853EC1A2BE7
:104AF00001F064FF9DED020B41EC1A0B53EC102BFF
:104B000051EC100B01F08AFDCDE908014A489DEDFA
:104B1000080B0521784400F0D4F89DED081B51ECFA
:104B2000100B53EC112B01F079FD9DED021B53ECA2
:104B3000112B01F043FFCDE906019DED020B53EC73
:104B40001A2B51EC100B01F069FD53EC1A2B01F0FC
:104B500069F99FED3B0B41EC1A0B53EC102B9DEDCB
:104B6000060B51EC100B02F055F89DED060B41ECD5
:104B70001B0B53EC102B9DED020B51EC100B01F0B5
:104B80004DFD53EC1B2B01F08DFA53EC1A2B02F068
:104B900041F89DED021B53EC112B02F03BF853EC56
:104BA000192B01F00BFFCDE9020101EB06500115B5
:104BB0000029C8BF039015DC9DED020B324651EC75
:104BC000100B02F0E1FCFEF782FF042808BF00F0A2
:104BD00043F932469DED020B51EC100B02F0D4FC70
:104BE000CDE902019DED020B51EC180B53EC102B9B
:104BF00001F014FDFFF73ABB0000904000000000F8
:104C0000FE822B654715973C00CC904000346F3FE7
:104C100001FCFFFF0000E03F88360000FFFF0F00AF
:104C200000000000432EE63F396CA80C615C20BEFA
:104C3000EF39FAFE422EE63F583500000000000032
:104C4000000000000000004000B52DED048BB0EE28
:104C5000409AF0EE609A83B051EC190B01F0D6FE49
:104C600041EC180B18EE100A18EE901A8DED008B1F
:104C7000002818BF0120084320F00040C0F17F60E9
:104C800000F1E040C00F14D019EE101A19EE900A8E
:104C90008DED009B002918BF0121084320F0004042
:104CA000C0F17F6000F1E040C00F04BF0120FBF7BE
:104CB000ABFCB0EE480A03B0F0EE680ABDEC048B22
:104CC00000BD70B504462DED028B4D1E00EBC500F6
:104CD000B0EE408AF0EE608A90ED000B35F00600F1
:104CE00017D053EC182B51EC100B01F097FC41EC52
:104CF000100B6D1E04EBC50090ED001B51EC100B6A
:104D000053EC112B01F08EF841EC100B35F006003E
:104D1000E7D1022D36D0042D1CD0062D1CBFBDECD2
:104D2000028B70BD53EC182B51EC100B01F076FC8C
:104D300094ED0A1B53EC112B01F074F853EC182B73
:104D400001F06CFC94ED081B53EC112B01F06AF898
:104D500041EC100B53EC182B51EC100B01F05EFCE6
:104D600094ED061B53EC112B01F05CF853EC182B5F
:104D700001F054FC94ED040B53EC102B01F052F8AD
:104D800041EC100B53EC182B51EC100B01F046FCCE
:104D900094ED021B53EC112B01F044F853EC182B4B
:104DA00001F03CFC94ED001B53EC112B01F03AF8A0
:104DB000BDEC028B41EC100B70BD00000000000048
:104DC0009FED070B10B553EC102B9FED070B51EC2B
:104DD000100B01F067F941EC100B10BD0000000052
:104DE0000000000000000000000000000000F03F94
:104DF00010B553EC102B51EC100B01F013F841ECF3
:104E0000100B10BD10B553EC112B51EC100B01F031
:104E100009F841EC100B10BD9FED050B10B553ECDC
:104E2000102B51EC100B01F03DF941EC100B10BDB3
:104E300000000000000000009FED050B10B553ECD2
:104E4000102B51EC100B01F0E9FB41EC100B10BDE5
:104E500000000000000000709FED050B10B553EC42
:104E6000102B51EC100B01F0D9FB41EC100B10BDD5
:104E70000000000000000010D0ED000AF4EEC00AAF
:104E8000F1EE10FA01DD80ED000AD0ED000AB1EE7E
:104E9000400AF4EEC00AF1EE10FA01D280ED000AE9
:104EA000704710B541EC100BFEF73AFE51EC100BB9
:104EB00010BD82B0CDE9000121F0004001909DEDD0
:104EC000000B02B051EC100B7047000030B5154AD2
:104ED0008389C3811188F1EE040A49BA818154881B
:104EE000CD1A64BA0480948864BA00EE104A0F4C5C
:104EF000B8EE400AA54220EE200ADFED0B0A20EEB4
:104F0000200A80ED010A92798272426901DA521C0C
:104F100003E05B1AA34201DA521E426101EB423107
:104F2000816130BDA0000020000080389CE6FFFFBA
:104F3000FCF70EFEFEF726FCFDF7F4FCFDF7BEFCC9
:104F4000FDF778FCFDF798FCFDF712FD01210848FC
:104F5000FBF7D4FC02210748FBF7D0FC642206498A
:104F60000648FDF7A1FBFDF7BFFC00F01EF8FEE7C9
:104F70005C0300208403002044480020AC03002090
:104F800001460020842900D0C81C7047B5EEC00A35
:104F9000F1EE10FA01D2B1EE400A704710B500B937
:104FA000012000F059FB002010BD10B500F0C0FB3F
:104FB000002010BD7FB50D4604464169B0F90800D8
:104FC00081B1A16971B1FFF7DBFFD4E905128DE86A
:104FD0000700D4E900102B46226900F0BCFC0390C6
:104FE00004B070BDFFF7CCFF03A9CDE90001208A12
:104FF0002B4682B2D4E9001000F080FC012801D0D9
:105000000020EDE70398EBE72DE9F041184C0F463F
:105010000546E6682068001D00F057FA38B9206898
:1050200090F82C1001208840216981432161681C7F
:1050300007D137B12168BDE8F0410E48091D00F0E5
:1050400087BA20683544B5424560216805D2A06B17
:10505000BDE8F041091D00F063BA606B091D00F066
:105060005FFAA06A854200D2A562BDE8F081000027
:105070001C000020740500202DE9F041054600F0D9
:1050800073FA2E4CA068401CA06020682C4F10B111
:10509000606940B32DE02560A068012829D1002671
:1050A00006EB860007EB800000F02CFA761C072E3A
:1050B000F6D323488C3000F025FA2148A03000F0C8
:1050C00021FA1F48B43000F01DFA1D48C83000F026
:1050D00019FA1B48DC3000F015FA19488C3060636F
:1050E0001430A06305E02068E96AC06A884200D8ED
:1050F0002560606A401C6062E96A0120226988407C
:105100001043206101EB810007EB8000291D00F0B6
:105110001FFA00F049FA606900280CD02068E96A9B
:10512000C06A884207D207494FF080500860BFF339
:105130004F8FBFF36F8FBDE8F08100001C0000208F
:105140009804002004ED00E010B5044690F85100EA
:1051500058B101280CD002280FD0502080F31188BC
:10516000BFF34F8FBFF36F8FFEE7206B00F030FA75
:105170002046BDE8104000F02BBA10BD10484FF497
:105180007051420706D0C01D0D4920F00700411A9A
:10519000C1F570510B4A00230144C2E900030839EC
:1051A000183A21F0070111604B600B600B1AC0E93F
:1051B000001393604FF0004053605061704700004F
:1051C0008805002070000020144E154CA6F1C80779
:1051D0004FF08058DFF84C9012E000BF00F0C4F9A7
:1051E000F068C568281D00F070F9A068401EA06036
:1051F0006068401E606000F0D7F92846FFF7A4FF02
:1052000060680028EAD138680128F9D9C9F8008017
:10521000BFF34F8FBFF36F8FF2E7000060050020F0
:105220001C00002004ED00E02DE9F0479A46DDE97E
:10523000098481466FF00303206B03EB8202104464
:10524000089E20F00707780707D0502080F31188C8
:10525000BFF34F8FBFF36F8FFEE7002561B10020D2
:1052600023180A5C83F834200A5C12B1401C102811
:10527000F6D384F8435001E084F83450072E00D36D
:105280000626E662C4E91165201D00F046F904F126
:10529000180000F042F92461C6F107006462A061C1
:1052A000E56484F8505052464946384600F0C0F84C
:1052B0002060B8F1000F01D0C8F80040BDE8F087C9
:1052C00030B5114900E011460A688242FBD34B68B1
:1052D0005C18844203D1406818444860084643681B
:1052E0001C18944209D1084C183C2468A24209D0E9
:1052F00052681A4442600A6812680260814200D013
:10530000086030BD0460F9E7700000200648416B7A
:10531000096829B1416BC968C968496881627047E9
:105320004FF0FF31FAE700001C00002008484068F9
:10533000401C4FF0500080F3118804D0BFF34F8F12
:10534000BFF36F8FFEE7BFF34F8FBFF36F8FFEE7A3
:10535000780000202DE9F0410546002700F01EFAF4
:10536000324E306808B9FFF709FF706905424ED127
:10537000C5B3083568070ED005F00700C0F1080076
:105380000544680707D0502080F31188BFF34F8F82
:10539000BFF36F8FFEE72DB37068854237D823487F
:1053A000183001460C6801E020460C466168A942AD
:1053B00002D221680029F7D131688C4227D00768D2
:1053C0002168016060680837411B10290FD96019F6
:1053D000420708D0502080F31188BFF34F8FBFF3EE
:1053E0006F8FFEE713E041606560FFF769FF61685A
:1053F0007068401A7060B268904200D2B060706904
:1054000001430020C4E90001F068401CF06000F096
:1054100039FB780707D0502080F31188BFF34F8FF6
:10542000BFF36F8FFEE73846BDE8F08158000020DB
:1054300010B5031F4FF080741C601B1F21F0010189
:105440001960191F044B0B6014390A60091F6FF0B3
:10545000020244380A6010BD2D53000800B52DED3E
:10546000048B83B041EC190B01F0D0FA41EC180B1E
:1054700018EE100A18EE901A8DED008B002818BF58
:105480000120084320F00040C0F17F6000F1E040BF
:10549000C00F14D019EE101A19EE900A8DED009B72
:1054A000002918BF0121084320F00040C0F17F60AF
:1054B00000F1E040C00F04BF0120FBF7A5F851EC5C
:1054C000180B03B0BDEC048B00BDD0E901320169BB
:1054D0009A60D0E901235A604A68824201D1826809
:1054E0004A60002202610868401E08600868704730
:1054F000034B036003F15400086080201060704784
:105500000801002000F108014FF0FF32C0E901124C
:10551000C160016100210160704700210161704795
:1055200030B50B685A1C02D000F1080202E0026993
:1055300004E02246546825689D42FAD953684B60BE
:1055400099608A60516008610168491C016030BD42
:1055500042684A6093688B60936859609160086103
:105560000168491C01607047502080F31188BFF327
:105570004F8FBFF36F8F0A494868401C486001286D
:105580000CD10848006810F0FF0F07D0502080F3BE
:105590001188BFF34F8FBFF36F8FFEE77047000096
:1055A0007800002004ED00E00849486828B1401E5A
:1055B000486001D180F311887047502080F3118832
:1055C000BFF34F8FBFF36F8FFEE70000780000201E
:1055D00070B500282AD0164DA0F1080460686969EA
:1055E000084207D1502080F31188BFF34F8FBFF3DB
:1055F0006F8FFEE722683AB1502080F31188BFF325
:105600004F8FBFF36F8FFEE78843606000F0C6F8EE
:1056100060686968084468602046FFF751FE2869A1
:10562000401C2861BDE8704000F02CBA70BD00003D
:10563000580000204FF0E020002101618161054900
:105640004FF47A720968B1FBF2F1491E41610721FA
:10565000016170471800002010B5020014D00F48F7
:10566000006B38B1502080F31188BFF34F8FBFF328
:105670006F8FFEE700F092F800211046FFF7C4FCA0
:1056800000F000FA002807D105494FF0805008606B
:10569000BFF34F8FBFF36F8F10BD00001C000020C1
:1056A00004ED00E070B50D4604000BD095B11E4A24
:1056B000106BB8B1502080F31188BFF34F8FBFF348
:1056C0006F8FFEE7502080F31188BFF34F8FBFF339
:1056D0006F8FFEE7502080F31188BFF34F8FBFF329
:1056E0006F8FFEE700F05AF8D26823685919934289
:1056F00004D98B420AD9914202D807E08B42FAD9E9
:10570000881A21600021FFF77FFC00E0216000F093
:10571000B9F9002807D105494FF080500860BFF360
:105720004F8FBFF36F8F70BD1C00002004ED00E0B1
:1057300010B586B00024039405AA04A903A8049414
:10574000FFF7D6FEDDE903010094CDE90110002347
:105750000EA11048059A00F0FEF80F490028C86213
:1057600011D0502080F31188BFF34F8FBFF36F8F9C
:105770004FF0FF30886201204861CC6006B0BDE880
:10578000104000F041B806B010BD000049444C453F
:1057900000000000C95100081C0000200248016BF5
:1057A000491C0163704700001C0000201448016B75
:1057B00011B10121C16170470021C1610169B1FAD4
:1057C00081F1C1F11F0101EB81020E4951F8223034
:1057D0006BB101EB820101F108034A6852684A602B
:1057E0009A4201D152684A60D168016070475020E6
:1057F00080F31188BFF34F8FBFF36F8FFEE7000078
:105800001C000020980400201CB537480168374A66
:10581000914207D1502080F31188BFF34F8FBFF31F
:105820006F8FFEE700683149491E884207D150203A
:1058300080F31188BFF34F8FBFF36F8FFEE72C49C2
:1058400008780190FF20087008788DF800009DF816
:1058500000009DF8002000F0F000904207D050209A
:1058600080F31188BFF34F8FBFF36F8FFEE79DF872
:105870000000204C00F0500020700720A06005E0E0
:105880009DF8002052008DF80020401E9DF8002059
:105890001206F5D4A060032807D0502080F31188A9
:1058A000BFF34F8FBFF36F8FFEE74FF44070A060E0
:1058B000019808700C482030016841F470010160C3
:1058C000016841F070410160FFF7B4FE00206060A4
:1058D000FAF7E0FC0848016841F040410160FAF73E
:1058E000C5FC00201CBD000000ED00E071C20F41AE
:1058F00000E400E07800002034EF00E02DE9FF5FD5
:105900008346DDE90E87994616468A469000FFF7E2
:1059100021FD05001CD05420FFF71CFD040014D00D
:105920000020256384F85100CDE90240CDE90087CD
:105930004B46324651465846FFF776FC2046FFF765
:105940009BFB012004B0BDE8F09F2846FFF740FE16
:105950004FF0FF30F6E7F0B585B0DDE90B640A9D46
:10596000A6B1DCB1542700972663022684F8516063
:10597000002604AFCDE90246CDE90057FFF754FCFD
:105980002046FFF779FB049805B0F0BD502080F366
:105990001188BFF34F8FBFF36F8FFEE7502080F366
:1059A0001188BFF34F8FBFF36F8FFEE70148C068C8
:1059B000704700001C0000202DE9F0412F4C00260C
:1059C000206B28B1A069401CA0613046BDE8F08181
:1059D000E5686D1CE56013D1606B006838B150203C
:1059E00080F31188BFF34F8FBFF36F8FFEE7606BBB
:1059F000A16B6163A063206A401C2062FFF786FCF4
:105A0000A06ADFF87C80854209D3606B0068A0B192
:105A1000606BC068C7687868854211D2A062206850
:105A2000C06A00EB800158F82100012800D9012646
:105A3000E0690028C9D00126C7E74FF0FF30EDE745
:105A4000381DFFF742FDB86A18B107F11800FFF7DB
:105A50003CFDF96A0120226988401043206101EB76
:105A6000810108EB8100391DFFF772FDF86A21689A
:105A7000C96A8842C9D30126C7E700001C0000207C
:105A8000980400202DE9F0472C4D00242746286B70
:105A900038B1FFF769FD286B401E2863286B40B1C1
:105AA00046E0502080F31188BFF34F8FBFF36F8F14
:105AB000FEE7A968224E0120D1B3A6F1B4098046C1
:105AC0003068E8B1F068C46804F11800FFF7FDFC25
:105AD000201DFFF7FAFCE06A2A6908FA00F1114379
